:100000000C94D2070C9419080C9419080C94190834
:100010000C9419080C9419080C9419080C941908DC
:100020000C9419080C9419080C9467280C943A291C
:100030000C94721F0C9419080C9419080C9419084C
:100040000C9419080C9419080C9419080C941908AC
:100050000C9419080C94D31F0C9419080C941908CB
:100060000C9419080C9419080C9419080C9419088C
:100070000C9419080C9419080C9419080C9419087C
:100080000C9419080C9419080C9419080C9419086C
:100090000C9419080C9419080C9419080C9419085C
:1000A0000C9419080C9419080C94190829003A00AA
:1000B0003B003C003D003E003F004000410042004C
:1000C00035001E001F002000210022002300230015
:1000D000240025002B0014001A000800150017004A
:1000E0001C0018000C001200E000040016000700BD
:1000F00009000A000B000D000E000F00E1001D00BA
:100100001B00060019000500050011001000360054
:10011000E000E300E2002C002C002C002C00E200A8
:10012000E000500043004400450068004B002C00F4
:100130002C002C002C002C002C002C002C002C005F
:100140002C002C002C002C002C002C002C002C004F
:100150002C002C002C002C002C002C002C002C003F
:100160000100010001000100010001000100010087
:100BE00001000100010001000100010064321464F1
:100BF0003214783C1E1E140A050000000001010199
:100C00000202030405050607090A0B0C0E0F111258
:100C1000141517191B1D1F212325282A2C2F3134A9
:100C200036393B3E414346494C4F5255585A5D6117
:100C300064676A6D707376797C7F8386898C8F9206
:100C400095989B9EA2A5A7AAADB0B3B6B9BCBEC1EC
:100C5000C4C6C9CBCED0D3D5D7DADCDEE0E2E4E639
:100C6000E8EAEBEDEEF0F1F3F4F5F6F8F9FAFAFB59
:100C7000FCFDFDFEFEFEFFFFFFFFFFFFFFFEFEFE91
:100C8000FDFDFCFBFAFAF9F8F6F5F4F3F1F0EEED00
:100C9000EBEAE8E6E4E2E0DEDCDAD7D5D3D0CECB8F
:100CA000C9C6C4C1BEBCB9B6B3B0ADAAA7A5A29E01
:100CB0009B9895928F8C898683807C797673706DF2
:100CC0006A6764615D5A5855524F4C494643413EEC
:100CD0003B393634312F2C2A282523211F1D1B197F
:100CE00017151412110F0E0C0B0A0907060505043F
:100CF00003020201010100000000000000000101E8
:100D000001010101010101020202020202020202CA
:100D10000303030303030303040404040404050599
:100D2000050505060606060607070707080808085A
:100D30000909090A0A0A0A0B0B0B0C0C0C0D0D0D04
:100D40000E0E0F0F0F101011111112121313141495
:100D5000151516161717181819191A1A1B1C1C1D09
:100D60001D1E1F1F20202122222324252526272760
:100D700028292A2B2B2C2D2E2F2F3031323334358E
:100D800036363738393A3B3C3D3E3F40414243449A
:100D9000464748494A4B4C4D4F5051525355565770
:100DA000585A5B5C5E5F606263646667696A6C6D1B
:100DB0006E707173747678797B7C7E808183848693
:100DC000888A8B8D8F91929496989A9B9D9FA1A3D0
:100DD000A5A7A9ABADAFB1B3B5B7B9BBBDBFC1C4D2
:100DE000C6C8CACCCFD1D3D6D8DADCDFE1E4E6E896
:100DF000EBEDF0F2F5F7FAFCFF12036B00650079FA
:100E00000062006F00610072006400000016037150
:100E1000006D006B006200750069006C0064006585
:100E200000720000000403090409026D00040100BF
:100E3000A0FA0904000001030101000921110100C9
:100E4000012240000705810308000A09040100018E
:100E500003010200092111010001224D0007058252
:100E60000308000A0904020001030000000921111F
:100E70000100012236000705830308000A09040364
:100E800000010300000009211101000122390007BF
:100E90000584032000011201100100000008EDFE8E
:100EA000606001000102000105010906A1010507BA
:100EB00019E029E71500250195087501810205084B
:100EC0001901290595057501910295017503910197
:100ED0000507190029F71500250195F8750181020C
:100EE000C005010980A10185021601002603001A30
:100EF00081002A8300751095018100C0050C09014D
:100F0000A1018503160100269C021A01002A9C02F9
:100F1000751095018100C005010902A1010901A117
:100F2000000509190129051500250195057501819F
:100F300002950175038101050109300931158125EB
:100F40007F95027508810609381581257F95017501
:100F5000088106050C0A38021581257F9501750860
:100F60008106C0C005010906A101050719E029E7AE
:100F7000150025019508750181029501750881010B
:100F8000050819012905950575019102950175035B
:100F900091010507190029FF150026FF0095067528
:100FA000088100C011241FBECFEFDAE0DEBFCDBF45
:100FB00004B603FE27C080919A0390919B03A091F1
:100FC0009C03B0919D038730904BA740B04BD1F468
:100FD00010929A0310929B0310929C0310929D030F
:100FE00014BE84B7877F84BF0FB6F894A89580910C
:100FF0006000886180936000109260000FBEE0E0A6
:10100000F8E3099511E0A0E0B1E0E4E8F9E502C0F9
:1010100005900D92AC33B107D9F723E0ACE3B1E012
:1010200001C01D92AA39B207E1F70E94BB250C94BA
:101030008B2C0C94000090E080E0089508950895B2
:1010400081E00895089581E008950C9420080E949D
:10105000BC172FEF84E39CE0215080409040E1F7E3
:1010600000C000000C94F61FEF92FF920F931F93A5
:10107000CF93DF937C01DC010D911C91119780913E
:10108000A501811143C012968C918823D1F1C8012A
:101090000E94411DC82F682FC8010E94EA1CB80198
:1010A0008C2F0E949F09EC01B7010E94250888231C
:1010B00009F468C0B701CE010E94A80B882309F487
:1010C00061C0CE33B0E7DB0770F4C433E0E7DE077E
:1010D00010F5C130F0E7DF0709F45CC050F5C11529
:1010E000D04709F44AC081E080933E0180933F01DC
:1010F000C701DF91CF911F910F91FF90EF900C945A
:101100002308C8010E94181DC82FC9CFC8010E941A
:10111000411DB801C6CFFE01E553F047D701129635
:101120008C91E930F10508F040C0E357F34D0C9481
:101130003D2CCE01825090474397A8F6F70182815B
:101140008823B1F20E94031F811102C00E94E21E97
:101150000E94201F90E090938C0380938B03FE01EC
:10116000E350F04780918B038160E231F10508F094
:1011700047C0EA56F34D0C943D2CF7018281811152
:101180000E94270880E0DF91CF911F910F91FF907F
:10119000EF900895D70112968C91882399F380914E
:1011A0004702816080934702EDCF882359F30E9464
:1011B000F80FE8CF882331F30E94EE0FE3CF8823A6
:1011C00009F30E94CB0EDECF8823E1F20E94E30EEA
:1011D000D9CF8823B9F20E94020FD4CF882391F28D
:1011E0000E941A0FCFCF882369F20E94320FCACF14
:1011F000882341F20E944A0FC5CF80918B03826001
:1012000080938B0380918B030E94241F0E94BC1744
:10121000B9CF80918B038460F3CF80918B0388607A
:10122000EFCF80918B038061EBCF80918B03806245
:10123000E7CF80918B038064E3CF80918B0380683C
:10124000DFCF80918B038C60DBCF80918B038E7F0F
:10125000D7CF80918B038D7FD3CF80918B038B7FF2
:10126000CFCF80918B03877FCBCF80918B038F7EF5
:10127000C7CF80918B038F7DC3CF80918B038F7BF2
:10128000BFCF80918B038F77BBCF80918B03837F00
:10129000B7CF90918B03892F97FB87F98058B0CFF8
:1012A000882361F010923E010E94A21F90933D019D
:1012B00080933C0182E00E94211564CF80913E0121
:1012C00081110FC080913C0190913D010E94AE1FA1
:1012D000883C910530F486E20E94F61386E20E9473
:1012E000D21482E00E9428154DCF882351F010922D
:1012F0003F010E94A21F90933D0180933C0180E238
:10130000DACF80913F0181110FC080913C01909113
:101310003D010E94AE1F883C910530F487E20E9497
:10132000F61387E20E94D21480E2DCCF0C94F70B14
:101330000C94F90B0C9422080C949A090895972F99
:1013400070E02AE0929F600D711D1124FB019AE567
:10135000899FE00DF11D1124EE0FFF1FE455FF4F93
:10136000859194910895FC01EE0FFF1FE451F44F15
:101370008591949108950E949F090E942C0B9C01D5
:10138000811540E4940708F097C0211580E33807E1
:1013900008F0FAC0203E310508F074C0203C310549
:1013A00008F0E5C0283A310588F4253A310508F0FF
:1013B000E2C02130310509F477C0C9010497813AB0
:1013C000910508F471C030E020E06EC0C901885A70
:1013D00091094597C0F7283A310509F4FEC0293A2A
:1013E000310509F4FDC02A3A310509F4FCC02B3A55
:1013F000310509F4FBC02C3A310509F4FAC02B3B46
:10140000310509F4F9C02C3B310509F4F8C02D3A37
:10141000310509F4F7C0203B310509F4F6C02E3A36
:10142000310509F4F5C02F3A310509F4F4C0213B28
:10143000310509F4F3C0223B310509F4F2C0233B26
:10144000310509F4F1C0243B310509F4F0C0253B16
:10145000310509F4EFC0263B310509F4EEC0273B06
:10146000310509F4EDC0283B310509F4ECC0293BF6
:10147000310509F4EBC02A3B310509F4EAC020E04C
:1014800034E412C0211590E2390780F42F3F310572
:1014900009F050F4283E310538F0C901805F910908
:1014A0003065409708F08FCFC9010895C9019F703A
:1014B0000E94B3099C01F8CF8115944508F041C002
:1014C000211583E5380708F06AC0211592E5390730
:1014D00038F5211541E5340708F05CC0211580E599
:1014E000380708F454C0C90134E0969587953A95B9
:1014F000E1F78370422F46954695437090E2499FED
:10150000A0011124582B822F837021E030E002C00B
:10151000220F331F8A95E2F7242B352B3C68C4CF6A
:10152000C9018370992741E050E002C0440F551F64
:101530008A95E2F72695269580E2289F900111244E
:10154000EBCF211596E5390748F4922F882721150E
:101550003545C8F59C01246F306AA6CFC901905665
:101560003F708115904108F02ECF30629DCFC901A8
:10157000805C91099DCF253A310549F1263A310524
:1015800049F522E830E490CF3327306C8DCF3F709F
:10159000306A8ACF322F2227216F306A85CFC90166
:1015A0008370992741E050E002C0440F551F8A958F
:1015B000E2F72695269580E2289F90011124242B9E
:1015C000352B3A6871CF88279F719C01CECF21E8D7
:1015D00030E46ACF23E830E467CF22EE34E464CF0E
:1015E00029EE34E461CF2AEE34E45ECF25EB34E417
:1015F0005BCF26EB34E458CF23EB34E455CF24EB18
:1016000034E452CF27EB34E44FCF2CEC34E44CCF0E
:101610002DEC34E449CF23E835E446CF2AE835E41D
:1016200043CF22E935E440CF24E935E43DCF21E240
:1016300036E43ACF23E236E437CF24E236E434CF3F
:1016400025E236E431CF26E236E42ECF27E236E437
:101650002BCF2AE236E428CF803E910581F1C8F4F1
:101660008133910509F462C048F48932910509F487
:1016700056C08A32910509F460C0089589339105F6
:10168000B9F082389105A1F08533910509F440C085
:101690000895863E910561F138F4823E9105B1F0DE
:1016A000833E9105E1F00895873E910551F108953B
:1016B00020918B032370D9F080EE90E00895209163
:1016C0008B0320FF14C089E390E0089520918B03E1
:1016D00022FF0DC024FD09C083EE90E00895209103
:1016E0008B0322FD31C024FF02C090E080E008950A
:1016F00020918B0323FFFBCF24FDF7CF87EE90E0F3
:10170000089520918B0323FFEECF86EE90E008959D
:1017100020918B0325FFEBCF89E290E00895209183
:101720008B0325FFE4CF85E390E0089520918B03A0
:1017300026FFDDCF8AE290E0089520918B0326FFFB
:10174000D6CF81E390E0089582EE90E00895089569
:101750000F931F93CF938C01FB018281811106C0EF
:10176000C1E08C2FCF911F910F910895C0914D0131
:10177000C11125C00531104799F70E94A70B81E0E0
:1017800080934D010E94A21F90934C0180934B01C6
:1017900010924001109242011092410110924401B6
:1017A0001092430110924601109245011092480197
:1017B0001092470110924A0110924901D2CF8091B4
:1017C0004B0190914C010E94AE1F883C910540F660
:1017D00080914001E82FF0E0EE0FFF1FEF5BFE4F1E
:1017E000118300838F5F80934001C0E0BACF0C94D7
:1017F0001E080C941F0885B7806885BF85B7806870
:1018000085BFAEE1B1E061E070E08D91E82FE29537
:10181000EF70F0E041A18F709B0101C0220F8A950B
:10182000EAF7922F9095942391A382A1822B82A311
:1018300081E0A732B80749F7A4E1B1E061E070E0C8
:101840008D91E82FE295EF70F0E041A18F709B0140
:1018500001C0220F8A95EAF7922F9095942391A3C5
:1018600082A1822B82A381E0AE31B80749F7E0E67E
:10187000F1E0AEE4B1E082E791E0119211921D92A5
:101880001D928E179F07C9F70C9496092F923F92CD
:101890004F925F926F927F928F929F92AF92BF9280
:1018A000CF92DF92EF92FF920F931F93CF93DF932C
:1018B0000EE411E08EE1C82E81E0D82E1801EE244E
:1018C000E394F12C66246394D1018D909D901D01C9
:1018D0001E921E92E60189916E01E82FE295EF704B
:1018E000F0E091A18F70970101C0220F8A95EAF76D
:1018F000892F822B81A382A1722E7094872182A3CB
:10190000D0EADA95F1F764E171E090E080E0EB0174
:101910005990BE01452D42954F7050E0EA0148A014
:10192000AD90BC901197552D5F70E70102C0CC0FB0
:10193000DD1F5A95E2F7AE01442109F059C0A70115
:10194000082E02C0440F551F0A94E2F74A295B296A
:1019500011965C934E9301968A309105C1F681A150
:10196000782271A282A1282B22A38D919C918816A6
:10197000990641F0609272010E94A21F9093740137
:1019800080937301D0E62D16D1E03D0609F09CCF7F
:10199000809172018823B1F080917301909174015C
:1019A0000E94AE1F069770F0E0E6F1E0D8018D913D
:1019B0009D918D0181939193B1E000361B07B1F7A2
:1019C000109272010E94980981E0DF91CF911F91DE
:1019D0000F91FF90EF90DF90CF90BF90AF909F90CE
:1019E0008F907F906F905F904F903F902F900895D1
:1019F00050E040E0ABCFE82FF0E0EE0FFF1FE05AE1
:101A0000FE4F80819181089508959C01CB0168B1BA
:101A1000542F5095562368B1462B6FB7F894820F18
:101A2000931F2817390711F46FBF0895F9017191B9
:101A30009F01E8E048B9000000C077FF58B9770F70
:101A4000000000C000C000C058B900C0EA9591F77E
:101A5000E8CFFC0197B1942B97B99B01220F331F5C
:101A6000620F731FCF010E94050D87EC90E0019774
:101A7000F1F700C00000089540E40C94290DAF92E6
:101A8000BF92CF92DF92EF92FF920F931F93CF936B
:101A9000DF937C01E901842F242F662309F43FC0E2
:101AA000C42ED12C8FEF90E0861B9109489F8001B6
:101AB000499F100D1124212F812F9927C81AD90A67
:101AC0009CE3A92EB12CC701B5010E94152CFB0186
:101AD000BC01C69EC001C79E900DD69E900D1124DC
:101AE000B5010E94152CE330F10509F443C080EFE5
:101AF000E816F10468F4E130F10591F13297A1F1B3
:101B00008CE3E816F10440F180E020E040E007C0FB
:101B1000E430F10599F1842F861B3597A9F7E42F5E
:101B2000F0E0E750F34F4491E22FF0E0E750F34F3D
:101B30009491E82FF0E0E750F34FE49149839883C4
:101B4000EA83DF91CF911F910F91FF90EF90DF908B
:101B5000CF90BF90AF900895812F262F210FDFCF18
:101B6000812F242F461BDBCF862F810FE42F412F9F
:101B70002E2FD5CFE42FE61B842FF9CF842F462FAD
:101B8000410FCDCF88E090E00C944B2CAB01BC0111
:101B900088E090E00C94692CCF93DF9300D000D0C4
:101BA000CDB7DEB7E4E7F2E083E0808311828FEF08
:101BB000828383838091740290917502A091760252
:101BC000B091770289839A83AB83BC83BC01CD013A
:101BD0000F900F900F900F90DF91CF910C94C60D46
:101BE00080917402ECE7F2E080FF06C069E570E0E6
:101BF0008CE792E00C943C0D118210821282339695
:101C000083E0E738F807C1F7F1CFECE7F2E0818332
:101C100060834283339693E0E738F907C1F70C9469
:101C2000F00DEF92FF920F931F93CF93DF9300D0AD
:101C30000F92CDB7DEB7182FE92EF62E042F809124
:101C4000740290917502A0917602B0917702809310
:101C5000780290937902A0937A02B0937B028091EC
:101C6000740280FF1FC09E012F5F3F4F812F9E2D6A
:101C70000E943F0D8091780210FB87F980937802D3
:101C80001695809179028078182BE0FA17F9109355
:101C90007902F0927A0200937B024B8169818A81FA
:101CA0000E94050E0F900F900F90DF91CF911F9122
:101CB0000F91FF90EF9008950F931F93CF93DF93B1
:101CC00000D000D00F92CDB7DEB789839D83062F59
:101CD000142F8091740280FF54C0982F9E77923009
:101CE00091F589819D810E94110E80917402B981C4
:101CF000B0FB87F980937402B69580917502807865
:101D0000B82B8D8180FBB7F9B093750200937602F2
:101D1000109377028091740290917502A0917602DF
:101D2000B091770289839A83AB83BC83BC01CD01D8
:101D30000F900F900F900F900F90DF91CF911F9108
:101D40000F910C94C60D982F96959F732EE3290F33
:101D50002F73243018F410917702C7CF965C9F73CD
:101D6000993018F6881F8827881F909175029D83E7
:101D7000990F982B9983AD81A7FBAA27A0F9AD8372
:101D8000B4CF0F900F900F900F900F90DF91CF91E5
:101D90001F910F910895E4E7F2E02081221F22278E
:101DA000221F30917502432F440F842F822B37FB63
:101DB000992790F9089668E671E00E94292C4381E2
:101DC00062810C945C0E20917402221F2227221F34
:101DD00030917502432F440F842F822B37FB9927B4
:101DE00090F98830910540F4805A9E4F40917702D7
:101DF000609176020C945C0E089768E671E00E9490
:101E0000292CF4CF60917602683F90F4685F80914E
:101E10007402881F8827881F90917502292F220F2E
:101E200097FB992790F940917702822B0C945C0ED6
:101E30006FEFEDCF60917602683090F0685080913E
:101E40007402881F8827881F90917502292F220FFE
:101E500097FB992790F940917702822B0C945C0EA6
:101E600060E0EDCF40917702483F90F4485F809169
:101E70007402881F8827881F90917502292F220FCE
:101E800097FB992790F960917602822B0C945C0E57
:101E90004FEFEDCF40917702483090F0485080915D
:101EA0007402881F8827881F90917502292F220F9E
:101EB00097FB992790F960917602822B0C945C0E27
:101EC00040E0EDCFCF93DF9300D000D0CDB7DEB7A9
:101ED0009091740290FF47C09178811132C0926056
:101EE000909374028091740290917502A091760291
:101EF000B091770289839A83AB83BC83BC01CD0107
:101F00000E94C60D80917402982F9E77923009F539
:101F100010928A01881F8827881F90917502292FA7
:101F2000220F97FB992790F94091770260917602F2
:101F3000822B0F900F900F900F90DF91CF910C9408
:101F40005C0E893110F09063CBCF8F73880F982B84
:101F5000C7CF982F9695925C9F739631D8F691E0F3
:101F600090938A01D7CF0F900F900F900F90DF9131
:101F7000CF9108958091470281608093470281E06C
:101F800080938B010E94031F811104C00E94E21EF6
:101F90000E94CC0D0E94C20D609374027093750272
:101FA00080937602909377026E7761F40E94CC0D55
:101FB0000E94C20D60937402709375028093760242
:101FC0009093770281E080938A018091740280FF70
:101FD00004C086958F730C94620F089580917402EB
:101FE00086958F738F5F893108F081E00C94620FC2
:101FF000CF93DF9300D000D0CDB7DEB790917402BD
:10200000892F8E7F90FF816080937402809174028B
:1020100090917502A0917602B091770289839A839C
:10202000AB83BC83BC01CD010E94C60D80917402BC
:1020300080FF0AC086958F730F900F900F900F90BE
:10204000DF91CF910C94620F10928A019FEFA0E76D
:10205000B2E09150A040B040E1F700C000000F9006
:102060000F900F900F90DF91CF910C94F00DCF93C4
:10207000C82F80918801909189010E94AE1FEC2F9A
:10208000F0E0EB50F44FE491E817190609F010F571
:102090000E94A21F9093890180938801E09187019B
:1020A000F0E0E750F44F449180917402881F882734
:1020B000881F90917502292F220F97FB992790F97D
:1020C00060917602822B0E94110E809187018F5FB2
:1020D00080938701CF910895CF93C82F8091850178
:1020E000909186010E94AE1FEC2FF0E0EE50F44F6D
:1020F000E491E817190609F0E8F40E94A21F9093F2
:1021000086018093850140917702609176028091EB
:102110008301909184010E94110E8091830190911E
:102120008401019668E671E00E94152C9093840169
:1021300080938301CF910895CF92DF92EF92FF9227
:102140000F931F93CF93C82F8091810190918201AB
:102150000E94AE1FEC2FE695F0E0EE50F44FE491B4
:10216000E817190609F0C8F50E94A21F9093820192
:10217000809381018CE7E82E82E0F82E10E000E0E9
:1021800098E6C92EDD24D39480917F01909180013F
:10219000800F911FB6010E94152C97014091770284
:1021A000609176020E943F0D0C5F1F4F83E0E80EA6
:1021B000F11C043681E0180739F70E94F00D809178
:1021C0007F0190918001C0FF10C00196B6010E946E
:1021D000152C9093800180937F01CF911F910F91D7
:1021E000FF90EF90DF90CF9008950197F2CFAF92DC
:1021F000BF92CF92DF92EF92FF920F931F93CF93F4
:10220000DF93C82FDD24DA9480FD02C0DD24D3944F
:1022100080917D0190917E010E94AE1FC695EC2FAA
:10222000F0E0E151F44FE491E817190611F008F0DD
:1022300053C00E94A21F90937E0180937D01CCE742
:10224000D2E010E000E097E0A92EB12C19821882AC
:102250001A8287E0E82EF12CC12C80917C018C0D34
:1022600087FD875A082E000C990B80179107E9F417
:10227000209177022E9DC0012F9D900D1124B50154
:102280000E94292C462F80917402881F8827881F5E
:1022900090917502592F550F97FB992790F99E0140
:1022A00060917602852B0E943F0DCD0C81E0E81AEB
:1022B000F10899F60F5F1F4F23960935110531F686
:1022C0000E94F00D80917C0191E0D91212C0811121
:1022D0000EC088E580937C01DF91CF911F910F9113
:1022E000FF90EF90DF90CF90BF90AF900895815016
:1022F000F1CF90E00196B8010E94292CEBCFBF925C
:10230000CF92DF92EF92FF920F931F93CF93DF93C1
:10231000CDB7DEB7CB50D1400FB6F894DEBF0FBEBD
:10232000CDBF182F80917A0190917B010E94AE1F42
:10233000E12FF0E0E451F44FE491E817190611F0B1
:1023400008F07AC00E94A21F90937B0180937A01CB
:102350008E010F5F1F4FF12CE12C6801D8011196FF
:102360001C9211971C9212961C92B12C9091000114
:1023700080917901B99E800D112489350CF088E592
:1023800087FD80E0082E000C990B8E159F05A1F4A7
:1023900080917402881F8827881F90917502592F99
:1023A000550F97FB992790F998014091770260911A
:1023B0007602852B0E943F0DB394B7E0BB12D6CFB7
:1023C000EFEFEE1AFE0A0D5F1F4FF9E5EF16F1046D
:1023D00029F62CE732E009E010E059E5E52EF12C72
:1023E000C801B7010E94292CFC01EE0FFF1FE80F66
:1023F000F91FEC0DFD1D8181D90111968C93119768
:1024000080818C93828112968C930F5F1F4F2D5F7A
:102410003F4F0236110521F70E94F00D9091000107
:10242000809179019130E9F48A3FBCF489EF80937F
:1024300079018FEF80930001C55FDE4F0FB6F894EE
:10244000DEBF0FBECDBFDF91CF911F910F91FF90E7
:10245000EF90DF90CF90BF900895815080937901E5
:10246000EBCF80362CF08FE58093790181E0E2CFCD
:102470008F5FF4CFFF920F931F93CF93DF938091E1
:102480007701909178010E94AE1F883E9340C8F179
:102490000E94A21F9093780180937701809175012B
:1024A000909176010196817099279093760180939F
:1024B000750129E5289F8001299F100D1124CCE783
:1024C000D2E080E5F82EC801817099279E014091E5
:1024D000770260917602FC01FE9EC001FF9E900D86
:1024E00011240E943F0D075A1F4F2396F3E0C7386F
:1024F000DF0749F7DF91CF911F910F91FF900C9467
:10250000F00DDF91CF911F910F91FF900895809171
:102510008A01882371F18091740286958F739EE3FE
:10252000980F9F73943018F482500C9437109AE3EC
:10253000980F9F73933018F486500C946C1097E3A7
:10254000980F9F73963018F489500C949C1091E367
:10255000980F9F73963018F48F500C94F7109BE2ED
:10256000980F9F73933018F485510C947F110C943D
:102570003A12089590939101809390010895E0910B
:102580009001F0919101309721F00190F081E02DC0
:10259000099480E00895E0919001F09191013097C5
:1025A00021F00280F381E02D09940895E0919001DB
:1025B000F0919101309721F00480F581E02D09948C
:1025C000089520918E0130918F012817390771F0FD
:1025D00090938F0180938E01E0919001F091910191
:1025E000309721F00680F781E02D0994089520911D
:1025F0008C0130918D012817390771F090938D016E
:1026000080938C01E0919001F0919101309721F03D
:102610000084F185E02D0994089508950C940D131C
:102620000E94991F0E94FB0B0E9463200C94BA0F1A
:102630005F926F927F928F929F92AF92BF92CF9252
:10264000DF92EF92FF920F931F93CF93DF9300D00F
:1026500000D00F92CDB7DEB70E94460C93E9A92EA9
:1026600091E0B92E10E000E088248394912C502E44
:10267000802F0E94FB0C7C01F501C190D1905F017D
:10268000C816D90609F45DC08091470281FD0E94F9
:10269000040D90E080E0CE24DF243401082E02C037
:1026A000660C771C0A94E2F7960126213721232B2A
:1026B00009F442C089835A82E620F72081E0EF289E
:1026C00009F480E08B830E94A21F8160782F9D8394
:1026D0008C8349815A816B818D810E94CD13000FBB
:1026E000111FF801ED56FE4F8081918168267926F1
:1026F000718260820E9410230E94BF129091920109
:102700008917B1F10E94BF12809392010F900F9030
:102710000F900F900F90DF91CF911F910F91FF902D
:10272000EF90DF90CF90BF90AF909F908F907F9071
:102730006F905F900C949C0901968A30910509F086
:10274000ACCF0F5F1F4F0930110509F090CF8FEF0D
:1027500089838A831B820E94A21F8160782F9D83B8
:102760008C8349815A816B818D810E94CD13C2CFA8
:102770000F900F900F900F900F90DF91CF911F91BE
:102780000F91FF90EF90DF90CF90BF90AF909F9010
:102790008F907F906F905F900895CF93DF93CDB728
:1027A000DEB72B970FB6F894DEBF0FBECDBF4F83B9
:1027B000588769877A878B871E8285E0FE01379666
:1027C000DE01119601900D928A95E1F749815A81B7
:1027D0006B817C818D819E812B960FB6F894DEBF34
:1027E0000FBECDBFDF91CF910C94441A882309F41A
:1027F000D8C0823871F40E94BF1281FDD2C089E333
:102800000E94E91D0E94B31E89E30E94261E0C94BB
:10281000B31E833859F40E94BF1280FDC2C083E505
:102820000E94E91D0E94B31E83E5EFCF843859F45E
:102830000E94BF1282FDB5C087E40E94E91D0E947C
:10284000B31E87E4E2CF9CEF980F913A18F40E94F0
:10285000E91DDDCF90E2980F983050F4877091E039
:1028600001C0990F8A95EAF7892F0E946A1ECFCF7F
:102870009BE5980F933070F4853A31F0863A39F041
:1028800083E890E00C94E11281E890E0FBCF82E8CD
:1028900090E0F8CF98E5980F953108F082C0883A1B
:1028A00009F440C0893A09F440C08A3A09F440C0AA
:1028B0008B3A09F440C08C3A09F440C08B3B09F4D0
:1028C00040C08C3B09F440C08D3A09F440C0803BC5
:1028D00009F440C08E3A09F440C08F3A09F440C070
:1028E000813B09F440C0823B09F440C0833B09F4BA
:1028F00040C0843B09F440C0853B09F440C0863B9E
:1029000009F440C0873B09F440C0883B09F440C04B
:10291000893B09F440C08A3B09F440C090E080E064
:102920000C94F71282EE90E0FBCF89EE90E0F8CFA6
:102930008AEE90E0F5CF85EB90E0F2CF86EB90E069
:10294000EFCF83EB90E0ECCF84EB90E0E9CF87EB27
:1029500090E0E6CF8CEC90E0E3CF8DEC90E0E0CF20
:1029600083E891E0DDCF8AE891E0DACF82E991E077
:10297000D7CF84E991E0D4CF81E292E0D1CF83E256
:1029800092E0CECF84E292E0CBCF85E292E0C8CF56
:1029900086E292E0C5CF87E292E0C2CF8AE292E07F
:1029A000BFCF0895882309F44BC0823871F40E9488
:1029B000BF1281FF45C089E30E94E91D0E94B31E3A
:1029C00089E30E94261E0C94B31E833859F40E949A
:1029D000BF1280FF35C083E50E94E91D0E94B31E2F
:1029E00083E5EFCF843859F40E94BF1282FF28C0DC
:1029F00087E40E94E91D0E94B31E87E4E2CF9CEFAA
:102A0000980F913AF0F290E2980F983050F4877056
:102A100091E001C0990F8A95EAF7892F0E94701EF4
:102A2000D2CF9BE5980F933020F490E080E00C9497
:102A3000E112885A853120F490E080E00C94F7127E
:102A40000895882321F00E946A1E0C94B31E0895F5
:102A5000882321F00E94701E0C94B31E08958F925B
:102A60009F92AF92BF92DF92EF92FF920F931F93CC
:102A7000CF93DF9300D000D00F92CDB7DEB77C01AB
:102A80006D837983FC01058102950F70128111110C
:102A90000E94891E0E94E21DD82E882371F0112306
:102AA000A1F08D81805E883080F082E00E94CC1D94
:102AB0000E94E21D91E0D82ED926E981E295EF70BF
:102AC000F0E0E855F34D0C943D2CD12CF6CF098164
:102AD0000F70F981F07F11F00295007F1123B1F0A2
:102AE000002361F08D81805E883018F02D812111E6
:102AF00009C0802F0E946A1E0E94B31E8D810E9411
:102B0000F61315C0802F0E947B1EF6CF8D810E9488
:102B1000D214002361F08D81805E883018F03D81F1
:102B2000311129C0802F0E94701E0E94B31EDD202B
:102B300009F4D3C10E94BF1D80FDCFC1F7011282ED
:102B40000E94B91D0E94021CC7010E947E170E94AC
:102B5000B91D0F900F900F900F900F90DF91CF91B4
:102B60001F910F91FF90EF90DF90BF90AF909F90DB
:102B70008F900C94241C802F0E94811ED6CF4981F7
:102B80004F70B42E5981507F503219F0B29480EFBB
:102B9000B8228D81882369F0813029F1112369F1F0
:102BA000002359F0F701858180FFA8CF8F708583BE
:102BB00004C0112361F0011104C08B2D0E94211566
:102BC000B6CF8B2D0130D1F70E949D1EB0CF0111E1
:102BD00006C00E94A01E8B2D0E942815A8CF013090
:102BE00009F4A5CFF6CF112321F0063008F09FCFCE
:102BF000E4CF053008F09BCFEECF002361F38D8149
:102C00000E94D21494CF898186958695837069F04D
:102C1000813009F08CCF8D8199819370111102C0A0
:102C200090E080E00E94F71282CF8D8199819370AD
:102C3000111102C090E080E00E94E11278CF8D81F6
:102C4000112329F00E941E220E94052370CF0E94AA
:102C50008622FACF8981837009F05FC0111167CF96
:102C60002D81229526952770220F220F8D818F703E
:102C700090E0B0E0A0E04C015D01022E04C0880CA1
:102C8000991CAA1CBB1C0A94D2F7FD8160E070E07D
:102C9000CB01F4FF0FC06FE070E080E090E004C073
:102CA000660F771F881F991F2A95D2F76095709538
:102CB0008095909529812695269523702D83223025
:102CC000B1F0233019F19B01AC01282939294A2997
:102CD0005B2929833A834B835C833D8169817A81B7
:102CE0008B819C813130B1F00E948F1B20CF9B01E2
:102CF000AC01282939294A295B2929833A834B8346
:102D00005C83CA01B9010E94B91B11CF0E948F1BBD
:102D1000C501B4010E94651B0ACF8695112311F0ED
:102D200089818170882309F402CF2D81229526950F
:102D30002770220F220F8D818F7090E0B0E0A0E00D
:102D40004C015D01022E04C0880C991CAA1CBB1CFE
:102D50000A94D2F73D8160E070E0CB0134FF0FC0F0
:102D60006FE070E080E090E004C0660F771F881F7E
:102D7000991F2A95D2F76095709580959095498115
:102D80004695469543704D834230B1F0433019F17A
:102D90009B01AC01282939294A295B2929833A83D7
:102DA0004B835C833D8169817A818B819C81313049
:102DB000B1F00E94951CBBCE9B01AC01282939299A
:102DC0004A295B2929833A834B835C83CA01B90171
:102DD0000E94BF1CACCE0E94951CC501B4010E948C
:102DE0006B1CA5CE3D81323F09F447C080F4303FD3
:102DF00079F1313FD9F1832F805E8031D0F01123FA
:102E000009F456C001117ACE89818F7133C04D818A
:102E1000433FD1F1443F99F7112309F43FC0898121
:102E20008F7189830E94021C63E089810E94C31D07
:102E30007ECE5D815F705D8389818F71112321F06A
:102E40000E94021C8D81BACE0E94241C8D81C4CEAA
:102E5000112341F0053008F06ACE89818F710E94FC
:102E6000491C65CE063008F062CEF7CF89818F719C
:102E7000112339F00E94021C5ACE89818F711123CF
:102E8000C9F30E94241C53CE112329F089818F712C
:102E90000E94ED1B4CCE0E94E31B49CE81E00E94B4
:102EA000CC1D023008F443CE82E00E94CC1D3FCE00
:102EB0000111A5CE89818F71E4CF49814F706D8159
:102EC000C7010E941B080E94DE1A31CE49814F7053
:102ED0006D81C7010E949E092ACE0F900F900F901E
:102EE0000F900F90DF91CF911F910F91FF90EF9076
:102EF000DF90BF90AF909F908F9008950F931F9396
:102F0000CF93DF93EC018B819C81892B29F0888101
:102F1000998189238F3F29F4DF91CF911F910F91E0
:102F20000895CE010E9434088823B1F36881798125
:102F30008A810E948F1D8C010E94E91C0E945A1BED
:102F4000B801CE01DF91CF911F910F910C942F15F5
:102F50000E94891E0E949A1E0E945C1E0E94B31E3F
:102F60000E94F6230E94052390E080E00E94E11277
:102F700090E080E00C94F7120E94781E0C94A81741
:102F80000E94831D282F892F82958F70903C80F49A
:102F90008A30B0F4843020F4823090F480E00895D8
:102FA0008630E1F781E0203E88F0213FB9F70EC07E
:102FB0008C3011F08F3091F793FB882780F90895BA
:102FC00081E0203F39F018F4203E40F70895243F77
:102FD00029F7FCCF0895CF93DF9300D000D00F9254
:102FE000CDB7DEB70F900F900F900F900F90DF913D
:102FF000CF910895CF93DF9300D000D000D0CDB70C
:10300000DEB726960FB6F894DEBF0FBECDBFDF91B8
:10301000CF9108951F93CF93DF93E091A60116E01F
:103020008091A7018E1304C0DF91CF911F91089565
:10303000CE2FD0E01E9FF0011124E855FE4F4081B5
:10304000518162817381848195810E94FA17FE010A
:103050003196E770E5CF4091D8015091D901609148
:10306000DA017091DB018091DC019091DD010C941B
:10307000FA171F93CF93DF938091DD01807FC1F416
:103080008091DA018823A1F08091A601C091A70167
:103090006091D8017091D9014091DB015091DC0120
:1030A000D62FD723DA01A095B09516E0C81304C037
:1030B000DF91CF911F91089590E04115510511F0D6
:1030C000DF3F31F401968770F1CF2A0F3B1F17C005
:1030D000189FF001199FF00D1124E855FE4F218132
:1030E0002713F0CF20812613EDCF22812111EACFC3
:1030F000238134812417350740F3241B350B283CEA
:10310000310500F72091DD012F7020612093DD0152
:1031100026E0289FF001299FF00D1124E355FE4F72
:1031200080818F708061808388ED91E00E947E179E
:10313000DF91CF911F910C940A189F92AF92BF928A
:10314000CF92DF92EF92FF920F931F93CF93DF9373
:10315000CDB7DEB72B970FB6F894DEBF0FBECDBF4D
:103160008C0185E0F801DE01179601900D928A9599
:10317000E1F7D8014C9111965C9111971296EC9061
:1031800012978091DB019091DC01009709F46BC1EB
:103190002091D8013091D901632F62236F3F09F448
:1031A00062C11396CD90DC909090DA01992009F4D9
:1031B000F8C0C816D90608F43FC0F601E81BF90BA1
:1031C000CF01FF24F394883C910508F0F12C88EDA1
:1031D000A82E81E0B82E8091DD01982F907FFF20EE
:1031E00009F4B7C0911180C0FE2C35132AC02413F6
:1031F00028C0E11026C08F7080618093DD010E949D
:103200002B18C5010E947E178091DD01D80115960B
:103210008C938F2D2B960FB6F894DEBF0FBECDBFCB
:10322000DF91CF911F910F91FF90EF90DF90CF90A2
:10323000BF90AF909F900895809590958C0D9D1DA7
:10324000C0CFCD2829F0842F85238F3F09F019C1E5
:1032500080E0B82FB170DB2EE091A6012091A7018C
:1032600036E080FD1CC0EE20A1F28091DD0181607E
:103270008093DD01F12CCDCF8E2F90E03E9FF001A9
:103280001124E855FE4F6181651306C06081641307
:1032900003C062816E11E7CFFC013196E770E21343
:1032A000EBCF4F8358878F8198850E94831D292FEC
:1032B00022952F70903260F0225F2F70223078F4C8
:1032C0009F7051F0F8019581907F31F4D12C0AC0A4
:1032D0009F7011F08823D1F3805E8830B8F3C80165
:1032E0000E947E17FD2C95CF351306C0241304C011
:1032F000D801EE2009F47BC04F8358878F819885D1
:103300000E94C017882309F4B8C0EE2009F4B5C0A4
:103310008091DD01803270F02091D8013091D90187
:103320003A8329831B82DD82CC828E83CE01019673
:103330000E947E1786E0F801A8EDB1E001900D92A1
:103340008A95E1F70E9439180E942B18FF24F39404
:1033500060CF911113C07C2DDB86CA866E2D8B85C4
:103360000E94EB1788ED91E00E947E1786E0F50140
:1033700011928A95E9F70E942B184BCF3513BCCFD9
:103380002413BACFE110B8CFD80115968C93C80199
:103390000E947E1786E0F50111928A95E9F7F92CD3
:1033A00038CFC816D90688F1B601681B790BCB0156
:1033B000F12C883C910508F047C0FE2CEE2009F462
:1033C0005CC0351330C024132EC08091DD0180FD18
:1033D00021C0982F907FF1F0D80115968C93159706
:1033E000903F39F0982F907F905F8F70892B1596C2
:1033F0008C93C8010E947E1786E0F801A8EDB1E029
:1034000001900D928A95E1F7B6CF809590958C0D3D
:103410009D1DCECF86E0F801A8EDB1E001900D92A0
:103420008A95E1F7F6CE4F8358878F8198850E9461
:10343000C01781117FCF8091DD0181608093DD0114
:10344000C8010E947E17E5CE7C2DDB86CA866E2DD4
:103450008B850E94EB1786E0E8EDF1E0DF011D921D
:103460008A95E9F788CFEE2041F04F8358878F8106
:1034700098850E94C01781115DCFC8010E947E17F8
:1034800065CF81E08E25E5CE1F93CF93DF93CDB737
:10349000DEB72C970FB6F894DEBF0FBECDBF4F83BB
:1034A000588769877A878B879C87CE0107960E9409
:1034B0009D18882369F08A859B85892B39F04F8177
:1034C0005885842F85238F3F09F071C016E05FC0B7
:1034D00086E0FE013796DE01119601900D928A95E5
:1034E000E1F78A859B85892B89F388859F818923CC
:1034F0008F3F61F32091A70130E0C90101968770E9
:1035000099274091A6014817190671F40E94BC172B
:103510001092A7011092A60186E0E8EDF1E0DF012C
:103520001D928A95E9F7D2CF96E0929FD001939FA2
:10353000B00D1124A855BE4FFE01319601900D9299
:103540009A95E1F78093A7010E940A18BFCF819F47
:10355000C001112488559E4F0E949D188823E9F0D0
:10356000E091A6011E9FF0011124E855FE4F408115
:10357000518162817381848195810E94FA178091C3
:10358000A60190E00196877099278093A60180910B
:10359000A6019091A7018913DACF2C960FB6F89463
:1035A000DEBF0FBECDBFDF91CF911F91089569851A
:1035B0007A858B859C850E94FA1788CFEF92FF92BF
:1035C0000F931F93CF93DF938C01892B89F0F12CFC
:1035D000EE24E394E8012196F8018491843709F4FC
:1035E00057C0A0F4823009F43EC048F48130D1F0D5
:1035F000DF91CF911F910F91FF90EF9008959CEF75
:10360000980F9037A8F70E94F6130AC0853709F47F
:103610004CC09CE7980F903758F78F770E94D214D0
:103620008E0116C00E5F1F4FFE01849190E2980F2D
:10363000983060F48770FE2D01C0FF0F8A95EAF77D
:103640008F2F0E948C1E0E94B31E02C00E94F61390
:103650008F2D815008F4BECFEFE9FFE03197F1F7ED
:1036600000C00000F6CF0E5F1F4FFE01849190E274
:10367000980F983050F48770FE2D01C0FF0F8A9587
:10368000EAF78F2F0E94921EDECF0E94D214E0CF65
:103690000E5F1F4FFE01C491C150D0F28FE99FE031
:1036A0000197F1F700C00000F7CF0E5F1F4FFE013A
:1036B000F490CECF089560931E0270931F02809302
:1036C0002002909321020C94A817CF93DF9300D08F
:1036D00000D0CDB7DEB769837A838B839C838091DA
:1036E0001E0290911F02A0912002B0912102298117
:1036F0003A814B815C81822B932BA42BB52B809339
:103700001E0290931F02A0932002B09321020F90FB
:103710000F900F900F90DF91CF910C94A817CF933B
:10372000DF9300D000D0CDB7DEB769837A838B8377
:103730009C8380911E0290911F02A0912002B09163
:10374000210229813A814B815C8182239323A42326
:10375000B52380931E0290931F02A0932002B09382
:1037600021020F900F900F900F90DF91CF910C944A
:10377000A817CF93DF9300D000D0CDB7DEB7698311
:103780007A838B839C8380911E0290911F02A0916B
:103790002002B091210229813A814B815C818227EC
:1037A0009327A427B52780931E0290931F02A0930E
:1037B0002002B09321020F900F900F900F90DF9195
:1037C000CF910C94A81710921A0210921B0210921B
:1037D0001C0210921D020C94A81741E050E060E01A
:1037E00070E004C0440F551F661F771F8A95D2F7FB
:1037F00040931A0250931B0260931C0270931D02A7
:103800000C94A817282F81E090E0A0E0B0E004C05D
:10381000880F991FAA1FBB1F2A95D2F740911A0241
:1038200050911B0260911C0270911D02842B952BFC
:10383000A62BB72B80931A0290931B02A0931C0215
:10384000B0931D020C94A81741E050E060E070E0D6
:1038500004C0440F551F661F771F8A95D2F7409505
:1038600050956095709580911A0290911B02A091DD
:103870001C02B0911D0284239523A623B7238093B5
:103880001A0290931B02A0931C02B0931D020C9489
:10389000A817282F81E090E0A0E0B0E004C0880FD6
:1038A000991FAA1FBB1F2A95D2F740911A02509167
:1038B0001B0260911C0270911D0284279527A62788
:1038C000B72780931A0290931B02A0931C02B09317
:1038D0001D020C94A817CF93DF9300D000D0CDB772
:1038E000DEB769837A838B839C8380911A029091DF
:1038F0001B02A0911C02B0911D0229813A814B81CB
:103900005C81822B932BA42BB52B80931A0290936E
:103910001B02A0931C02B0931D020F900F900F90FA
:103920000F90DF91CF910C94A817CF93DF9300D025
:1039300000D0CDB7DEB769837A838B839C83809177
:103940001A0290911B02A0911C02B0911D022981C4
:103950003A814B815C8182239323A423B5238093F6
:103960001A0290931B02A0931C02B0931D020F90A9
:103970000F900F900F90DF91CF910C94A817CF93D9
:10398000DF9300D000D0CDB7DEB769837A838B8315
:103990009C8380911A0290911B02A0911C02B0910D
:1039A0001D0229813A814B815C8182279327A427BC
:1039B000B52780931A0290931B02A0931C02B09328
:1039C0001D020F900F900F900F90DF91CF910C94EC
:1039D000A8170895E82F2AE0929FE00D11248E2F5A
:1039E000877041E001C0440F8A95EAF7E695E695B5
:1039F000E69585E0E89FF0011124E252FE4F30E0A9
:103A000020E070E05191DF011197CB01022E02C03E
:103A1000969587950A94E2F781708195852784238E
:103A200085278C932F5F3F4F2530310559F7089537
:103A3000E82F2AE0929FE00D11249E2F9770E695C3
:103A4000E695E69585E0E89FF0011124E252FE4FED
:103A500050E040E080E0219130E0092E02C0369530
:103A600027950A94E2F721703327042E01C0220F14
:103A70000A94EAF7822B4F5F5F4F4530510559F7A3
:103A80000895BF92CF92DF92EF92FF920F931F9310
:103A9000CF93DF938C01C0901A02D0901B02E0906C
:103AA0001C02F0901D0280911E0290911F02A091B5
:103AB0002002B0912102C82AD92AEA2AFB2ACFE1A2
:103AC000D0E0BC2ED701C6010C2E04C0B695A79538
:103AD000979587950A94D2F780FD0EC0219788F7B5
:103AE000B12C8B2DDF91CF911F910F91FF90EF9013
:103AF000DF90CF90BF900895B8018C2F0E94BB0932
:103B0000019761F3EECFCF93DF93D82FC92F0E9497
:103B1000411D6D2F7C2FDF91CF910C94BB091F931A
:103B2000CF93DF93162FD72F9091A501992339F0CA
:103B3000862F972FDF91CF911F910C94831D88239F
:103B400091F0862F972F0E94411DC82F682F812F3B
:103B50009D2F0E94EA1C612F7D2F8C2FDF91CF912A
:103B60001F910C94BB09862F972F0E94181DC82FF8
:103B7000F2CF809122028595859585950895809153
:103B800022028770089598E0899F90011124622B8A
:103B9000609322020C94021C90912202809589234A
:103BA00080932202282F277061F4282F082E000C02
:103BB000330B9217130629F08595859585950C94FE
:103BC000241C089590912202977081E009F480E00E
:103BD0000895909113019923E1F090918B0397FF41
:103BE00018C0E82FE695E695E695EF3139F120917A
:103BF000010130910201E20FF32FF11D877021E0E6
:103C000030E001C0220F8A95EAF78181822B8183FF
:103C100008952091010130910201F90132969FEF40
:103C200040E05191851751F09F3F19F4511101C0A7
:103C3000942F4F5F4E31A9F79F3F09F40895290F44
:103C4000311D97FD3A95F9018283089590911301F2
:103C5000992301F190918B0397FF1CC0E82FE69503
:103C6000E695E695EF3139F120910101309102019D
:103C7000E20FF32FF11D877021E030E0A90102C0AF
:103C8000440F551F8A95E2F7CA01809591818923D7
:103C9000818308952091010130910201F90132964A
:103CA000205E3F4F9191891303C0DF0111971C9251
:103CB000E217F307B9F7089581E090E0E091010180
:103CC000F0910201E80FF91F1082019680329105F0
:103CD000A9F7089590914602982B90934602089573
:103CE000982F9095809146028923809346020895EB
:103CF00010924602089590914502982B90934502A8
:103D00000895982F909580914502892380934502CC
:103D1000089510924502089590914402982B909333
:103D200044020895982F90958091440289238093AE
:103D30004402089510924402089580932302089546
:103D40001092230208952091010130910201F9019E
:103D50003196205E3F4F80E0919191118F5FE21785
:103D6000F307D1F70895E0910101F09102018091EC
:103D700046028083E0910101F091020180819091DF
:103D80004502892B8083E0910101F091020180813D
:103D900090914402892B808390912302992361F0B2
:103DA000E0910101F09102018081892B80830E94C2
:103DB000A31E8111109223028091010190910201B2
:103DC0000C94CB126DEE7EEF90E080E00E94752C9B
:103DD00060E082E090E00E94572C60E083E090E099
:103DE0000E94572C60E084E090E00E94572C60E035
:103DF00085E090E00E94572C40E050E0BA0188E056
:103E000090E00C94692C90E080E00E94512C9C0181
:103E100081E02D3E3E4F09F080E0089582E090E081
:103E20000C94432C682F82E090E00C94572C83E094
:103E300090E00C94432C682F83E090E00C94572C76
:103E400084E090E00C94432C682F84E090E00C9484
:103E5000572C80919103843039F11092480288E107
:103E600090E020E40FB6F894A895809360000FBE10
:103E70002093600080E00E949C0983B7817F84606A
:103E800083BF83B7816083BF7894889583B78E7F23
:103E900083BF0FB6F894A8958091600088618093E5
:103EA0006000109260000FBE089508950895CF93AA
:103EB0000E94551F0E94460C0E94561FC0E08C2F86
:103EC0000E94FB0C892B31F4CF5FC930C1F780E031
:103ED000CF91089581E0FCCF0E94BC170E94BF12D1
:103EE0000C949C091F921FB61F9211248F939F93CD
:103EF000AF93BF9380914802811113C080918703D3
:103F000090918803A0918903B0918A034196A11DE5
:103F1000B11D8093870390938803A0938903B09386
:103F20008A03BF91AF919F918F911F901FBE1F90E9
:103F3000189582E084BD93E095BD9AEF97BD80937C
:103F40006E0008952FB7F8948091870390918803AD
:103F5000A0918903B0918A032FBF0895CF92DF9279
:103F6000EF92FF929C014FB7F89480918703909154
:103F70008803A0918903B0918A034FBF6C017D0132
:103F8000EE24FF24A90170E060E0C416D506E60621
:103F9000F70638F0821B930BFF90EF90DF90CF90E5
:103FA00008950197F7CF1F921FB61F9211248F9388
:103FB0009F93AF93BF938091870390918803A091C3
:103FC0008903B0918A030196A11DB11D80938703D7
:103FD00090938803A0938903B0938A03BF91AF9114
:103FE0009F918F911F901FBE1F9018950E94EC27E4
:103FF000F8942FEF87EA91E6215080409040E1F756
:1040000000C0000087E090EBDC0180939A0390935E
:104010009B03A0939C03B0939D0388E19CE00FB6A3
:10402000F894A895809360000FBE90936000FFCF36
:10403000AF92BF92CF92DF92EF92FF920F931F93B6
:10404000CF93C0E0AA24A394B12CE82EF12C8C2F9E
:104050000E94FB0C6C0110E000E0C501002E02C0C4
:10406000880F991F0A94E2F78C219D21892B99F0E2
:10407000602F7C2F80E00E949F09E816F90659F412
:1040800081E0CF911F910F91FF90EF90DF90CF9043
:10409000BF90AF9008950F5F1F4F0A301105E9F6EA
:1040A000CF5FC930A1F680E0ECCFCF93C82F8CE270
:1040B0000E941820882321F08C2FCF910C94182077
:1040C00080E0CF910895CF93DF9300D000D0CDB79B
:1040D000DEB70E94031F811102C00E94E21E95E616
:1040E000998308C00E94460C8FE39CE90197F1F781
:1040F00000C00000A981A150A983A111F3CF89E2DA
:104100000E945520811110C18AE20E945520811120
:104110000E94E21E85E00E94552081110E94F61F38
:104120000E940E1F8093470287E00E94552088233B
:1041300071F08BE10E945520882309F4D1C0909141
:104140004702892F8D7F91FF826080934702809183
:1041500047020E94121F0E94201F90E090938C0340
:1041600080938B0380EE0E945520882341F090912C
:104170008B03892F8E7F90FF816080938B0389E36F
:104180000E945520882341F090918B03892F8D7FC9
:1041900091FF826080938B0382EE0E9455208823DA
:1041A00041F090918B03892F8B7F92FF84608093E5
:1041B0008B0386EE0E945520882341F090918B035B
:1041C000892F877F93FF886080938B0383EE0E9403
:1041D0005520882341F090918B03892F8F7E94FF87
:1041E000806180938B0385E30E945520882341F0F2
:1041F00090918B03892F8F7D95FF806280938B0335
:1042000081E30E945520882341F090918B03892FF0
:104210008F7B96FF806480938B0381E10E94552001
:10422000882341F090918B03892F97FB87F9805861
:1042300080938B0380918B030E94241F87E20E944E
:10424000552089838EE10E945520882319F0B98179
:10425000B260B9838FE10E945520882319F029812B
:104260002460298380E20E945520882319F0398137
:104270003860398381E20E945520882319F04981F2
:104280004061498382E20E945520882319F05981B8
:104290005062598383E20E945520882319F0898156
:1042A0008064898384E20E9455208823B1F199813A
:1042B0009068998389810E941B1F3981232F30E0E8
:1042C00050E040E029833A834B835C83CA01B90103
:1042D0000F900F900F900F90DF91CF910C945B1B7C
:1042E0008EE00E945520882339F090914702892F53
:1042F0008B7F92FF846029CF80E10E9455209091AE
:104300004702882329F0892F877F93FF88601DCF7C
:10431000892F8E7F90FF816018CFA981A111CACF0C
:104320000E94171F282FCBCF0F900F900F900F9048
:10433000DF91CF91089580914B0280FF12C0609170
:10434000060185E0689FB001112475956795759504
:10435000679560387105A8F561157105A1F1862F83
:10436000089581FF09C06091060185E0689FB00152
:10437000112475956795EDCF6091060182FD0AC005
:1043800080914C028823D1F0909105016091060143
:10439000891728F085E0689FB0011124DACF869F45
:1043A000B001112485E0869F9001879F300D112474
:1043B000692F70E0C9010E94292CCBCF65E070E025
:1043C000CECF8FE7089581E0089580914B0280FF62
:1043D0000CC06091040170E07595679575956795BF
:1043E0006115710549F1862F089581FF06C060911E
:1043F000040170E075956795F3CF6091040182FD2B
:104400000BC090914C029923A1F06091030180911F
:104410000401961738F0682F70E06038710500F3DA
:104420008FE70895899FC001112470E00E94292C14
:10443000F4CF61E070E0D7CF81E00895803F31F4A0
:104440000E949B21819580934F020895813F19F42A
:104450000E949B21F8CF823F31F40E949B218195DD
:1044600080934E020895833F19F40E949B21F8CF58
:10447000893F29F40E94E5218093500208958A3FE4
:1044800021F40E94E5218195F7CF8B3F31F40E9402
:10449000E52181958093510208958C3F19F40E9483
:1044A000E521F8CF843F31F480914D028160809303
:1044B0004D020895853F21F480914D028260F7CF2F
:1044C000863F21F480914D028460F1CF873F21F433
:1044D00080914D028860EBCF883F21F480914D029E
:1044E0008061E5CF8D3F31F480914B0281608093F4
:1044F0004B0208958E3F21F480914B028260F7CFEA
:104500008F3FB9F780914B028460F1CF90914E02BA
:10451000803F41F480914F0287FD10924F02992312
:1045200071F00895813F29F480914F021816ACF381
:10453000F6CF823F81F497FFF2CF10924E02809126
:104540004F0290915002892B90915102892B49F78B
:1045500010924C020895833F19F4191674F3DFCFBB
:10456000893F39F4809150021816CCF6109250020F
:10457000D6CF8A3F29F48091500287FFD0CFF6CF63
:104580008B3F39F48091510287FFC9CF10925102BD
:10459000C6CF8C3F29F4809151021816BCF3BFCFCF
:1045A000843F31F480914D028E7F80934D02B7CFCE
:1045B000853F21F480914D028D7FF7CF863F21F416
:1045C00080914D028B7FF1CF873F21F480914D0286
:1045D000877FEBCF883F21F480914D028F7EE5CF1E
:1045E0008D3F31F480914B028E7F80934B0297CFA9
:1045F0008E3F21F480914B028D7FF7CF8F3F09F0E2
:104600008ECF80914B028B7FF0CF8DE492E00E94A1
:10461000D6120E94A21F90934A02809349020895E5
:104620001F93CF93DF9300D000D000D0CDB7DEB77B
:104630008091490290914A020E94AE1FAC01809184
:104640004C022091070130E0811106C02091080141
:104650009AE0299F900111244217530788F0209176
:104660004E02A0914F02A98310915002B0915102C5
:10467000BE8321110FC09A2F912B9B2B09F0B2C042
:1046800026960FB6F894DEBF0FBECDBFDF91CF9157
:104690001F9108958F3F19F08F5F80934C0212167F
:1046A00024F40E949B2180934E0280914E0287FF4A
:1046B00005C00E949B21819580934E02298112168C
:1046C00024F40E949B2180934F0280914F0287FF28
:1046D00005C00E949B21819580934F0280914E02DC
:1046E000882309F455C030914F023D83332309F4E8
:1046F0004FC0282F880F330B440B550B29833A8367
:104700004B835C83CA01B9010E941C2B23E333E372
:1047100043E35FE369837A838B839C8369817A8136
:104720008B819C810E94802B69837A838B839C83FD
:1047300069817A818B819C810E94E42A60934E0278
:104740008D81082E000C990BAA0BBB0B89839A83D1
:10475000AB83BC83BC01CD010E941C2B23E333E35C
:1047600043E35FE369837A838B839C8369817A81E6
:104770008B819C810E94802B69837A838B839C83AD
:1047800069817A818B819C810E94E42A60934F0227
:10479000111624F40E94E52180935002809150026A
:1047A00087FF05C00E94E5218195809350029E817C
:1047B000191624F40E94E521809351028091510240
:1047C00087FF05C00E94E5218195809351022696BE
:1047D0000FB6F894DEBF0FBECDBFDF91CF911F9112
:1047E0000C9405238F3F09F057CF68CF85E0EDE4A7
:1047F000F2E0DF011D928A95E9F710924C021092C7
:104800004B020895809172020895CF93DF9300D0F8
:104810000F92CDB7DEB720919103243019F523E034
:1048200029838A839B832093E9008FEF9091E8008E
:10483000815095FD06C095ED9A95F1F70000811124
:10484000F5CF8091E80085FF0DC050E040E063E0C7
:1048500070E0CE0101960E9464268091E8008E7778
:104860008093E8000F900F900F90DF91CF91089503
:10487000CF93DF9300D00F92CDB7DEB79C0180912C
:104880009103843031F582E08983205831093B83DC
:104890002A8383E08093E9008FEF9091E8008150B4
:1048A00095FD06C095ED9A95F1F700008111F5CFC1
:1048B0008091E80085FF0DC050E040E063E070E0CB
:1048C000CE0101960E9464268091E8008E77809345
:1048D000E8000F900F900F90DF91CF9108952091F5
:1048E00091032430F1F422E02093E9002FEF30917E
:1048F000E800215035FD06C035ED3A95F1F700008E
:104900002111F5CF2091E80025FF0BC050E040E0D9
:1049100065E070E00E9464268091E8008E778093C5
:10492000E8000895CF93DF93D82FC92F809191038A
:104930008430F1F4909113019923E9F090918B0365
:1049400097FF19C08093E9008FEF9091E8008150A4
:1049500095FD06C095E19A95F1F700008111F5CF1C
:104960008091E80050E040E060E270E085FD1AC010
:10497000DF91CF91089581E08093E9008FEF9091CE
:10498000E800815095FD06C095ED9A95F1F700007D
:104990008111F5CF8091E80085FFEACF50E040E03B
:1049A00068E070E08D2F9C2F0E9464268091E800C3
:1049B0008E778093E80080E2ED2FFC2FA2E5B2E035
:1049C00001900D928A95E1F7D3CF809190038111E8
:1049D00009C00E94EC270E9449288091E20084606F
:1049E0008093E20008951092900308950895089529
:1049F0000C946C1F42E061EC81E00E94682742E069
:104A000061EC82E00E94682742E061EC83E00E9452
:104A1000682742E261EC84E00C946827809193035C
:104A2000893089F148F4823009F494C0833009F464
:104A30004FC0813041F008958A3009F47BC08B303B
:104A400009F461C0089580919203813A09F03FC052
:104A50008091E800877F8093E80080919603909191
:104A60009703892B61F460E282E592E070E00E9496
:104A7000B3268091E8008B778093E800089560E08A
:104A800090E080E0F3CF80919203813201F5809134
:104A9000960390919703009711F00397C1F48091CA
:104AA000E800877F8093E8008091E80082FF0BC0D8
:104AB0008091F100809372028091E8008B7780935F
:104AC000E8000C949C27809191038111EDCF08950B
:104AD00080919203813AD9F7809196039091970340
:104AE000892BA9F78091E800877F8093E800809167
:104AF000E80080FFFCCF809113018093F10080914A
:104B0000E8008E77DCCF80919203813201F78091AB
:104B1000960390919703892BD1F68091E800877FC7
:104B20008093E8000E949C27809194038093130156
:104B30000C94BC1780919203813249F68091E80071
:104B4000877F8093E8000E949C2780919503809343
:104B50007302089580919203813A09F0B8CF809151
:104B6000E800877F8093E8008091E80080FFFCCF19
:104B700080917302C2CF84B7877F84BF0FB6F89449
:104B8000A895809160008861809360001092600019
:104B90000FBE80E880936100109261000E940E13A6
:104BA0000E94EC270E9449288091E2008460809353
:104BB000E20078940E94C92A0E94101389E091E0D3
:104BC0000E94BA1280919103853029F00E94181337
:104BD0000E948712F7CF0E94291F80918F0388239C
:104BE00089F30E94571F882369F30E944E26EACF5B
:104BF0009C01DA01892F992783309105C1F068F46F
:104C00008130910509F445C0029761F48DE690E08A
:104C100029E23EE02D933C93089581329105E1F025
:104C2000829739F190E080E030E020E0F3CFC901D5
:104C30009927213059F08230910559F0E5E2FEE0E4
:104C4000892B81F7849190E09F01E4CFEDE0FEE0B5
:104C5000F9CFE9EFFDE0F6CF643020F7E62FF0E082
:104C6000EE0FFF1FED5CFE4F2081318189E090E067
:104C7000D1CF6430B8F670E0FB01EE0FFF1FE55DA9
:104C8000FE4F20813181695D7E4FFB01808190E084
:104C9000C1CF82E190E026E93EE0BCCF80E189BD52
:104CA00082E189BD09B400FEFDCF8091D8008F7DDF
:104CB0008093D8008091E00082608093E000809132
:104CC000E00081FDFCCF0895AF92BF92CF92DF92BA
:104CD000FF920F931F93CF93DF936C01EB018A0137
:104CE0000E94BB27F82E811123C00115110539F050
:104CF000F80180819181C81BD90BC80ED91EB12C37
:104D0000A12C2097A9F08091E80085FD22C0809118
:104D1000E8008E778093E80001151105A1F0F801F5
:104D200080819181A80EB91EB182A08285E0F82E03
:104D30008F2DDF91CF911F910F91FF90DF90CF903A
:104D4000BF90AF9008950E94BB278823D1F2F82E20
:104D5000EFCFF60181916F018093F1002197FFEF72
:104D6000AF1ABF0ACECFFC01CB012091980330913E
:104D700099032617370790F0009729F42091E8004F
:104D80002E772093E80040E0009751F4411108C0CD
:104D90008091E80082FF31C080E00895C901F3CF1F
:104DA000209191032223A9F12530A9F12091E80057
:104DB00023FD2DC02091E80022FDEACF2091E800DC
:104DC00020FFE2CF3091F3002091F200009719F01C
:104DD0002830310558F041E02830310509F040E035
:104DE0002091E8002E772093E800CECF41914093A8
:104DF000F10001972F5F3F4FE9CF80919103882306
:104E000041F0853041F08091E80083FFC1CF81E01F
:104E1000089582E0089583E00895FC01CB0120917C
:104E20009803309199032617370790F0009729F4DB
:104E30002091E8002E772093E80040E0009751F49D
:104E4000411108C08091E80082FF32C080E00895DF
:104E5000C901F3CF209191032223B1F12530B1F1A3
:104E60002091E80023FD2EC02091E80022FDEACF2A
:104E70002091E80020FFE2CF3091F3002091F20072
:104E8000009719F02830310558F041E028303105FD
:104E900009F040E02091E8002E772093E800CECF83
:104EA00044914093F100319601972F5F3F4FE8CF37
:104EB00080919103882341F0853041F08091E80092
:104EC00083FFC0CF81E0089582E0089583E00895D4
:104ED000982F973028F08F708093E90081E0089533
:104EE0009093E900242F762F50E0981731F07091BD
:104EF000EC002091ED005091F00021FD02C09F5F79
:104F0000E8CF3091EB003E7F3093EB003091ED0025
:104F10003D7F3093ED003091EB0031603093EB003A
:104F20007093EC002093ED005093F0002091EE0080
:104F300027FDE5CF80E008958091920387FF13C09D
:104F40008091E80082FF06C08091E8008B77809313
:104F5000E80004C0809191038111F2CF08958091FF
:104F600091038823D9F38091E80080FFF8CF8091E6
:104F7000E8008E77ECCF2091E4003091E50095E6D3
:104F8000A9012091EC00822F817020FF06C0809142
:104F9000E80080FF06C080E008952091E80022FD2F
:104FA0001AC080919103882389F0853089F080911F
:104FB000EB0085FD0FC02091E4003091E500421721
:104FC0005307F9F29150E1F684E0089582E00895E4
:104FD00083E0089581E008950E945A280E94622883
:104FE000E0EEF0E0808181608083E8EDF0E0808198
:104FF0008F77808319BCA7EDB0E08C918E7F8C9366
:1050000080818F7E80831092900308950F931F9369
:10501000CF93DF930E945A280E946228C8EDD0E007
:1050200088818F77888388818068888388818F7D55
:10503000888319BC1092910310928D0310928F03F4
:1050400010928E0300EE10E0F80180818B7F808348
:1050500088818160888342E060E080E00E94682768
:10506000E1EEF0E080818E7F8083E2EEF0E08081EF
:1050700081608083808188608083F80180818E7F59
:105080008083888180618883DF91CF911F910F9108
:105090000895E8EDF0E080818F7E8083E7EDF0E019
:1050A00080818160808384E082BF81E0809390036F
:1050B0000C940628E8EDF0E080818E7F80831092CA
:1050C000E20008951092DA001092E10008951F9214
:1050D0000F920FB60F9211242F933F934F935F932C
:1050E0006F937F938F939F93AF93BF93EF93FF93B0
:1050F0008091E10082FF0BC08091E20082FF07C037
:105100008091E1008B7F8093E1000E94C82A80910A
:10511000DA0080FF19C08091D80080FF15C080910F
:10512000DA008E7F8093DA008091D90080FF94C0EE
:1051300080E189BD82E189BD09B400FEFDCF81E037
:10514000809391030E94E5248091E10080FF19C0C3
:105150008091E20080FF15C08091E2008E7F8093F5
:10516000E2008091E20080618093E2008091D800AB
:1051700080628093D80019BC85E0809391030E94DF
:10518000F7248091E10084FF29C08091E20084FF30
:1051900025C080E189BD82E189BD09B400FEFDCF53
:1051A0008091D8008F7D8093D8008091E1008F7E20
:1051B0008093E1008091E2008F7E8093E2008091F5
:1051C000E20081608093E20080918D03882309F4DE
:1051D00049C084E0809391030E94F8248091E1000B
:1051E00083FF29C08091E20083FF25C08091E10008
:1051F000877F8093E10082E08093910310928D037A
:105200008091E1008E7F8093E1008091E2008E7FAB
:105210008093E2008091E20080618093E20042E0AE
:1052200060E080E00E9468278091F00088608093B1
:10523000F0000E94F624FF91EF91BF91AF919F91F2
:105240008F917F916F915F914F913F912F910F902F
:105250000FBE0F901F90189519BC109291030E94D9
:10526000F32472CF8091E30087FD02C081E0B2CFCA
:1052700083E0B0CF1F920F920FB60F9211242F939D
:105280003F934F935F936F937F938F939F93AF93CE
:10529000BF93CF93DF93EF93FF93D091E900DF703B
:1052A0008091EC00C82FC17080FDC0E81092E90029
:1052B0008091F000877F8093F00078940E947E298F
:1052C0001092E9008091F00088608093F000CD2B6F
:1052D000CF70C093E900FF91EF91DF91CF91BF9123
:1052E000AF919F918F917F916F915F914F913F917E
:1052F0002F910F900FBE0F901F9018951F93CF9373
:10530000DF93CDB7DEB7AA970FB6F894DEBF0FBE16
:10531000CDBF82E993E0FC0101962091F10020834A
:1053200023E08A399207B9F70E940E258091E800A0
:1053300083FF16C180919203909193039A3008F0F5
:105340000FC1E92FF0E0E854F34D0C943D2C803868
:1053500081F0823809F004C1809196038F708093A8
:10536000E9008091EB0085FB882780F91092E90025
:1053700006C080918E0390918F039111826090916D
:10538000E800977F9093E8008093F1001092F1007D
:105390008091E8008E77E0C0882309F4CEC0823087
:1053A00009F0DEC0809194038111D1C080919603F1
:1053B0008F7009F4D5C08093E9002091EB0020FFA5
:1053C000C6C0933031F48091EB0080628093EB0093
:1053D000BEC09091EB0090619093EB0021E030E033
:1053E00001C0220F8A95EAF72093EA001092EA00A2
:1053F0008091EB008860EACF8111B2C010919403D4
:105400001F778091E3008078812B8093E300809167
:10541000E800877F8093E8000E949C278091E80045
:1054200080FFFCCF8091E30080688093E30082E0FE
:10543000111183E08093910393C08058823008F06B
:105440008FC080919403909195038C3D23E0920747
:10545000A1F583E08A838AE289834FB7F894DE015D
:10546000139620E03EE051E2E32FF0E05093570026
:10547000E49120FF03C0E295EF703F5FEF708E2F45
:1054800090E0EA30C0F0C7968D939D932F5F243152
:1054900059F74FBF8091E800877F8093E8006AE268
:1054A00070E0CE0101960E94B3268091E8008B77D0
:1054B0008093E80055C0C096E7CFAE014F5F5F4FC5
:1054C000609196030E94F825BC01892B09F448C01D
:1054D0008091E800877F8093E80089819A810E940B
:1054E0000D27E3CF8038E1F58091E800877F809336
:1054F000E80080918D038093F1004ACF811130C084
:1055000090919403923060F58091E800877F8093BA
:10551000E80090938D030E949C2780918D0388233F
:1055200011F084E005C08091E30087FDFACF81E0AF
:10553000809391030E94FA2413C0809194038130D8
:1055400079F481E0933009F080E080938F0310922A
:10555000E9008091E800877F8093E8000E949C2703
:105560008091E80083FF0AC08091E800877F8093E4
:10557000E8008091EB0080628093EB00AA960FB662
:10558000F894DEBF0FBECDBFDF91CF911F9108957C
:105590000895CF93809191038823A1F0C091E900F1
:1055A000CF709091EC00892F817090FD80E8C82B1E
:1055B0001092E9008091E80083FD0E947E29CF705F
:1055C000C093E900CF9108950E94EB2A6894B1112D
:1055D0000C947A2B08950E945F2B88F09F5798F0C7
:1055E000B92F9927B751B0F0E1F0660F771F881FE8
:1055F000991F1AF0BA95C9F714C0B13091F00E9402
:10560000792BB1E008950C94792B672F782F882798
:10561000B85F39F0B93FCCF3869577956795B39528
:10562000D9F73EF490958095709561957F4F8F4F97
:105630009F4F0895E89409C097FB3EF4909580959C
:10564000709561957F4F8F4F9F4F9923A9F0F92F48
:1056500096E9BB279395F695879577956795B795C6
:10566000F111F8CFFAF4BB0F11F460FF1BC06F5FAC
:105670007F4F8F4F9F4F16C0882311F096E911C0BE
:10568000772321F09EE8872F762F05C0662371F0DF
:1056900096E8862F70E060E02AF09A95660F771FF3
:1056A000881FDAF7880F9695879597F9089557FD23
:1056B0009058440F551F59F05F3F71F04795880F80
:1056C00097FB991F61F09F3F79F087950895121617
:1056D00013061406551FF2CF4695F1DF08C01616C3
:1056E00017061806991FF1CF869571056105089474
:1056F0000895E894BB2766277727CB0197F908958B
:105700000E94932B0C94042C0E94F62B38F00E94DC
:10571000FD2B20F0952311F00C94ED2B0C94F32B22
:1057200011240C947A2B0E94572B70F3959FC1F390
:10573000950F50E0551F629FF001729FBB27F00D3F
:10574000B11D639FAA27F00DB11DAA1F649F662794
:10575000B00DA11D661F829F2227B00DA11D621FE3
:10576000739FB00DA11D621F839FA00D611D221F9D
:10577000749F3327A00D611D231F849F600D211D81
:10578000822F762F6A2F11249F5750409AF0F1F004
:1057900088234AF0EE0FFF1FBB1F661F771F881F6D
:1057A00091505040A9F79E3F510580F00C94ED2B8D
:1057B0000C947A2B5F3FE4F3983ED4F3869577956B
:1057C0006795B795F795E7959F5FC1F7FE2B880F13
:1057D000911D9695879597F9089597F99F6780E8A9
:1057E00070E060E008959FEF80EC089500240A9433
:1057F0001616170618060906089500240A941216AC
:105800001306140605060895092E0394000C11F4DE
:10581000882352F0BB0F40F4BF2B11F460FF04C08B
:105820006F5F7F4F8F4F9F4F0895AA1BBB1B51E1A6
:1058300007C0AA1FBB1FA617B70710F0A61BB70B00
:10584000881F991F5A95A9F780959095BC01CD01A5
:10585000089597FB072E16F4009407D077FD09D022
:105860000E94152C07FC05D03EF4909581959F4F22
:105870000895709561957F4F0895EE0FFF1F059075
:10588000F491E02D0994F999FECF92BD81BDF89A6B
:10589000992780B50895A6E1B0E044E050E00C946B
:1058A0007D2CA8E1B0E042E050E00C947D2C262F46
:1058B000F999FECF92BD81BDF89A019700B4021606
:1058C00039F01FBA20BD0FB6F894FA9AF99A0FBEB4
:1058D00008950396272F0E94582C0E94572C252F9D
:1058E0000E94582C242F0C94582C0196272F0E948C
:1058F000582C0C94572CDC01CB01FC01F999FECFFC
:1059000006C0F2BDE1BDF89A319600B40D92415047
:105910005040B8F70895F894FFCFDA08DF08E4089C
:10592000E908EE08F308F80850097509FD080909A7
:105930000D091109150919091D0921092509290947
:105940002D093109350939093D0941094509490937
:1059500067156715BF15BF1503161F169715971501
:105960002A169715F216F2165D17971597156617F2
:10597000A729CC29B02ACC29B02AFC291D2AB02A73
:04598000722A7E2ADF
:10598400FF24022808140A321E022492246F2438A9
:105994002405240136969734353031323337F1F00B
:1059A40094F5F4F6F7C667404D3639640F170FE1E6
:0C59B4000EA80E3B0E540E6D0E860E0069
:00000001FF
