:100000000C940C030C9453030C9453030C9453035F
:100010000C9453030C9453030C9453030C94530308
:100020000C9453030C9453030C94CD1D0C94A01EFC
:100030000C94DA140C9453030C9453030C94530350
:100040000C9453030C9453030C9453030C945303D8
:100050000C9453030C943B150C9453030C945303CE
:100060000C9453030C9453030C9453030C945303B8
:100070000C9453030C9453030C9453030C945303A8
:100080000C9453030C9453030C9453030C94530398
:100090000C9453030C9453030C9453030C94530388
:1000A0000C9453030C9453030C94530314001A0040
:1000B0000800150017001C0018000C0012001300A7
:1000C00004001600070009000A000B000D000E00D6
:1000D0000F0033001D001B00060019000500110071
:1000E000100036003700015101000100010001003D
:1000F00001000100010001000100010001000100F8
:1001000001000100010001000100010001000100E7
:1001100001000100010001000100010001000100D7
:1001200001000100010001000100010001000100C7
:1004600001000100010001000100010012036B0006
:100470006500790062006F00610072006400000096
:10048000160371006D006B006200750069006C005E
:1004900064006500720000000403090409026D0095
:1004A000040100A0FA090400000103010100092170
:1004B000110100012240000705810308000A090418
:1004C00001000103010200092111010001224D0078
:1004D0000705820308000A09040200010300000066
:1004E0000921110100012236000705830308000AD3
:1004F0000904030001030000000921110100012289
:1005000039000705840320000112011001000000DA
:1005100008EDFE606001000102000105010906A16D
:1005200001050719E029E7150025019508750181E6
:1005300002050819012905950575019102950175B6
:100540000391010507190029F71500250195F87594
:10055000018102C005010980A10185021601002662
:1005600003001A81002A8300751095018100C005DF
:100570000C0901A1018503160100269C021A010045
:100580002A9C02751095018100C005010902A10194
:100590000901A10005091901290515002501950585
:1005A0007501810295017503810105010930093149
:1005B0001581257F95027508810609381581257FEB
:1005C000950175088106050C0A38021581257F956D
:1005D0000175088106C0C005010906A101050719BA
:1005E000E029E7150025019508750181029501753F
:1005F00008810105081901290595057501910295E4
:1006000001750391010507190029FF150026FF0058
:10061000950675088100C00011241FBECFEFDAE0F7
:10062000DEBFCDBF04B603FE27C080911C029091AF
:100630001D02A0911E02B0911F028730904BA7406F
:10064000B04BD1F410921C0210921D0210921E02A7
:1006500010921F0214BE84B7877F84BF0FB6F89430
:10066000A89580916000886180936000109260007E
:100670000FBEE0E0F8E3099511E0A0E0B1E0EAE1A7
:10068000F4E402C005900D92A433B107D9F722E03B
:10069000A4E3B1E001C01D92AC31B207E1F70E94C2
:1006A000231B0C94DF210C94000090E080E008955F
:1006B0000895089581E00895089581E008950C94C7
:1006C0005A030E942B0D2FEF84E39CE021508040C1
:1006D0009040E1F700C000000C945E15EF92FF928D
:1006E0000F931F93CF93DF938C01FC01E080F18087
:1006F00080916201811140C082818823C1F1C701CC
:100700000E94B012C82F682FC7010E945912B7016A
:100710008C2F0E94A604EC01B8010E945F0388237D
:1007200009F44BC0B801CE010E94AF06882309F43A
:1007300044C0C531F0E7DF0720F5C23080E7D807B5
:1007400008F04DC0C115E0E7DE0791F1C130D04798
:10075000E1F181E08093360180933701C801DF9198
:10076000CF911F910F91FF90EF900C945D03C70103
:100770000E948712C82FCBCFC7010E94B012B701C9
:10078000C8CFCC3380E7D80709F49BC0CD33D0471E
:1007900001F7F8018281882309F4BAC01092370169
:1007A0000E940A15909335018093340180E296C02F
:1007B000F801828181110E94610380E0DF91CF9175
:1007C0001F910F91FF90EF900895F8018281882387
:1007D000A1F38091DC0181608093DC01EECFF80110
:1007E0008281882309F4BACF0E946B14811102C060
:1007F0000E9451140E94881490E090930E028093FE
:100800000D02FE01E350F04780910D028160E2315C
:10081000F10538F4EF51FE4D0C948F2180910D02BB
:10082000826080930D0280910D020E948C140E94C0
:100830002B0DC3CF80910D028460F3CF80910D0208
:100840008860EFCF80910D028061EBCF80910D0227
:100850008062E7CF80910D028064E3CF80910D022A
:100860008068DFCF80910D028C60DBCF80910D021C
:100870008E7FD7CF80910D028D7FD3CF80910D02D7
:100880008B7FCFCF80910D02877FCBCF80910D02E0
:100890008F7EC7CF80910D028F7DC3CF80910D02D7
:1008A0008F7BBFCF80910D028F77BBCF80910D02E0
:1008B000837FB7CF90910D02892F97FB87F98058DE
:1008C000B0CFF8018281882361F0109236010E9436
:1008D0000A15909335018093340182E00E94900ABA
:1008E0006CCF8091360181110FC0809134019091BD
:1008F00035010E941615883C910530F486E20E946D
:10090000650986E20E94410A82E00E94970A55CF5B
:100910008091370181110FC0809134019091350190
:100920000E941615883C910530F487E20E94650903
:1009300087E20E94410A80E2E8CF0C94FE060C9404
:1009400000070C945C030C94A1040895972F70E0A9
:100950002AE0929F600D711D1124FB019EE1899F89
:10096000E00DF11D1124EE0FFF1FE455FF4F85919F
:1009700094910895FC01EE0FFF1FE459FB4F859100
:10098000949108950E94A6040E9433069C0181154B
:1009900040E4940708F097C0211580E3380708F079
:1009A000FAC0203E310508F074C0203C310508F043
:1009B000E5C0283A310588F4253A310508F0E2C04F
:1009C0002130310509F477C0C9010497813A9105B6
:1009D00008F471C030E020E06EC0C901885A910966
:1009E0004597C0F7283A310509F4FEC0293A310588
:1009F00009F4FDC02A3A310509F4FCC02B3A31054F
:100A000009F4FBC02C3A310509F4FAC02B3B31053F
:100A100009F4F9C02C3B310509F4F8C02D3A310531
:100A200009F4F7C0203B310509F4F6C02E3A310530
:100A300009F4F5C02F3A310509F4F4C0213B310522
:100A400009F4F3C0223B310509F4F2C0233B310520
:100A500009F4F1C0243B310509F4F0C0253B310510
:100A600009F4EFC0263B310509F4EEC0273B310500
:100A700009F4EDC0283B310509F4ECC0293B3105F0
:100A800009F4EBC02A3B310509F4EAC020E034E464
:100A900012C0211590E2390780F42F3F310509F08B
:100AA00050F4283E310538F0C901805F9109306566
:100AB000409708F08FCFC9010895C9019F700E9427
:100AC000BA049C01F8CF8115944508F041C0211566
:100AD00083E5380708F06AC0211592E5390738F533
:100AE000211541E5340708F05CC0211580E5380781
:100AF00008F454C0C90134E0969587953A95E1F71A
:100B00008370422F46954695437090E2499FA0011D
:100B10001124582B822F837021E030E002C0220F75
:100B2000331F8A95E2F7242B352B3C68C4CFC901CB
:100B30008370992741E050E002C0440F551F8A9509
:100B4000E2F72695269580E2289F90011124EBCFAD
:100B5000211596E5390748F4922F88272115354548
:100B6000C8F59C01246F306AA6CFC90190563F702A
:100B70008115904108F02ECF30629DCFC901805C75
:100B800091099DCF253A310549F1263A310549F5BC
:100B900022E830E490CF3327306C8DCF3F70306A3D
:100BA0008ACF322F2227216F306A85CFC901837007
:100BB000992741E050E002C0440F551F8A95E2F7A3
:100BC0002695269580E2289F90011124242B352B11
:100BD0003A6871CF88279F719C01CECF21E830E41D
:100BE0006ACF23E830E467CF22EE34E464CF29EE05
:100BF00034E461CF2AEE34E45ECF25EB34E45BCFFE
:100C000026EB34E458CF23EB34E455CF24EB34E423
:100C100052CF27EB34E44FCF2CEC34E44CCF2DEC07
:100C200034E449CF23E835E446CF2AE835E443CF1E
:100C300022E935E440CF24E935E43DCF21E236E432
:100C40003ACF23E236E437CF24E236E434CF25E24C
:100C500036E431CF26E236E42ECF27E236E42BCF3E
:100C60002AE236E428CF803E910581F1C8F4813331
:100C7000910509F462C048F48932910509F456C01F
:100C80008A32910509F460C0089589339105B9F05D
:100C900082389105A1F08533910509F440C008958B
:100CA000863E910561F138F4823E9105B1F0833EB4
:100CB0009105E1F00895873E910551F10895209145
:100CC0000D022370D9F080EE90E0089520910D027E
:100CD00020FF14C089E390E0089520910D0222FFC7
:100CE0000DC024FD09C083EE90E0089520910D020F
:100CF00022FD31C024FF02C090E080E008952091E1
:100D00000D0223FFFBCF24FDF7CF87EE90E008957F
:100D100020910D0223FFEECF86EE90E00895209102
:100D20000D0225FFEBCF89E290E0089520910D029E
:100D300025FFE4CF85E390E0089520910D0226FF82
:100D4000DDCF8AE290E0089520910D0226FFD6CFF4
:100D500081E390E0089582EE90E0089508950F9366
:100D60001F93CF938C01FB018281811106C0C1E0EA
:100D70008C2FCF911F910F910895C0914501C11102
:100D800025C00531104799F70E94AE0681E0809397
:100D900045010E940A1590934401809343011092EB
:100DA000380110923A011092390110923C011092D0
:100DB0003B0110923E0110923D01109240011092B1
:100DC0003F011092420110924101D2CF8091430124
:100DD000909144010E941615883C910540F680913F
:100DE0003801E82FF0E0EE0FFF1FE75CFE4F1183A4
:100DF00000838F5F80933801C0E0BACF0C94580312
:100E00000C945903CF93DF9385B7806885BF85B76E
:100E1000806885BFADE1B1E040E251E0C1E0D0E0E3
:100E20008D91E82FE295EF70F0E061A18F709E0147
:100E300001C0220F8A95EAF7922F9095962391A3ED
:100E400082A1822B82A34A175B0751F7A3E1B1E08D
:100E50004DE151E0C1E0D0E08D91E82FE295EF70D7
:100E6000F0E061A18F709E0101C0220F8A95EAF720
:100E7000922F9095962391A382A1822B82A34A1749
:100E80005B0751F710924D0110924C0110924701EF
:100E90001092460110924F0110924E01109249019A
:100EA00010924801109251011092500110924B0182
:100EB00010924A01DF91CF910C949D042F923F92A2
:100EC0005F926F927F928F929F92AF92BF92CF92DA
:100ED000DF92EF92FF920F931F93CF93DF9396E4ED
:100EE000292E91E0392E2DE1E22E21E0F22E3CE474
:100EF000832E31E0932E01E010E066246394E1013B
:100F0000A990B9901E01DE011E921E92F7018191F7
:100F10007F01E82FE295EF70F0E091A18F709801CA
:100F200001C0220F8A95EAF7892F822B81A382A123
:100F3000722E7094872182A380EA8A95F1F783E16B
:100F4000C82E81E0D82E90E080E0E60179916E0114
:100F5000472F42954F7050E0EA0158A04D915C91A7
:100F600011977F70E80102C0CC0FDD1F7A95E2F780
:100F7000BE01652109F062C0B801082E02C0660FEB
:100F8000771F0A94E2F7462B572B11965C934E93EA
:100F900001968A309105C9F681A1782271A282A1B9
:100FA000282B22A38D919C91A816B90641F060923E
:100FB00052010E940A1590935401809353018214A8
:100FC000930409F09CCF80915201882311F1809104
:100FD0005301909154010E9416150697D0F080910C
:100FE00046019091470190934D0180934C0180916F
:100FF00048019091490190934F0180934E01809157
:101000004A0190914B0190935101809350011092AD
:1010100052010E949F0481E0DF91CF911F910F91B7
:10102000FF90EF90DF90CF90BF90AF909F908F9008
:101030007F906F905F903F902F90089570E060E0F8
:10104000A2CFE82FF0E0EE0FFF1FE45BFE4F8081A0
:1010500091810895089590935A01809359010895BC
:10106000E0915901F0915A01309721F00190F081FF
:10107000E02D099480E00895E0915901F0915A0122
:10108000309721F00280F381E02D09940895E091DA
:101090005901F0915A01309721F00480F581E02D3B
:1010A0000994089520915701309158012817390764
:1010B00071F09093580180935701E0915901F0919C
:1010C0005A01309721F00680F781E02D09940895A8
:1010D00020915501309156012817390771F09093EE
:1010E000560180935501E0915901F0915A013097D2
:1010F00021F00084F185E02D0994089508950C9461
:101100007E080E9401150E9402070C94CB155F9285
:101110006F927F928F929F92AF92BF92CF92DF9207
:10112000EF92FF920F931F93CF93DF9300D000D0E5
:101130000F92CDB7DEB70E945E079CE5A92E91E025
:10114000B92E10E000E088248394912C502E802F3B
:101150000E9421087C01F501C190D1905F01C81661
:10116000D90609F45DC08091DC0181FD0E942A0846
:1011700090E080E0CE24DF243401082E02C0660C0B
:10118000771C0A94E2F7960126213721232B09F4D4
:1011900042C089835A82E620F72081E0EF2809F4D3
:1011A00080E08B830E940A158160782F9D838C8359
:1011B00049815A816B818D810E943C09000F111F6A
:1011C000F801E45AFE4F8081918168267926718268
:1011D00060820E9478180E94300890915B01891704
:1011E000B1F10E94300880935B010F900F900F9037
:1011F0000F900F90DF91CF911F910F91FF90EF9083
:10120000DF90CF90BF90AF909F908F907F906F9026
:101210005F900C94A30401968A30910509F0ACCF3D
:101220000F5F1F4F0330110509F090CF8FEF8983B7
:101230008A831B820E940A158160782F9D838C838C
:1012400049815A816B818D810E943C09C2CF0F90E8
:101250000F900F900F900F90DF91CF911F910F91F2
:10126000FF90EF90DF90CF90BF90AF909F908F90C6
:101270007F906F905F900895CF93DF93CDB7DEB7E7
:101280002B970FB6F894DEBF0FBECDBF4F835887A4
:1012900069877A878B871E8285E0FE013796DE019B
:1012A000119601900D928A95E1F749815A816B81DF
:1012B0007C818D819E812B960FB6F894DEBF0FBE88
:1012C000CDBFDF91CF910C94B30F882309F4D8C020
:1012D000823871F40E94300881FDD2C089E30E94F7
:1012E00058130E94221489E30E9495130C9422142F
:1012F000833859F40E94300880FDC2C083E50E9403
:1013000058130E94221483E5EFCF843859F40E94C9
:10131000300882FDB5C087E40E9458130E94221451
:1013200087E4E2CF9CEF980F913A18F40E9458138B
:10133000DDCF90E2980F983050F4877091E001C0B3
:10134000990F8A95EAF7892F0E94D913CFCF9BE591
:10135000980F933070F4853A31F0863A39F083E88B
:1013600090E00C94520881E890E0FBCF82E890E096
:10137000F8CF98E5980F953108F082C0883A09F4C3
:1013800040C0893A09F440C08A3A09F440C08B3A17
:1013900009F440C08C3A09F440C08B3B09F440C0CA
:1013A0008C3B09F440C08D3A09F440C0803B09F4FD
:1013B00040C08E3A09F440C08F3A09F440C0813BE6
:1013C00009F440C0823B09F440C0833B09F440C0AB
:1013D000843B09F440C0853B09F440C0863B09F4D6
:1013E00040C0873B09F440C0883B09F440C0893BBA
:1013F00009F440C08A3B09F440C090E080E00C94BE
:10140000680882EE90E0FBCF89EE90E0F8CF8AEE9C
:1014100090E0F5CF85EB90E0F2CF86EB90E0EFCF58
:1014200083EB90E0ECCF84EB90E0E9CF87EB90E0AA
:10143000E6CF8CEC90E0E3CF8DEC90E0E0CF83E85A
:1014400091E0DDCF8AE891E0DACF82E991E0D7CF71
:1014500084E991E0D4CF81E292E0D1CF83E292E0BF
:10146000CECF84E292E0CBCF85E292E0C8CF86E295
:1014700092E0C5CF87E292E0C2CF8AE292E0BFCF8E
:101480000895882309F44BC0823871F40E94300813
:1014900081FF45C089E30E9458130E94221489E30A
:1014A0000E9495130C942214833859F40E9430083A
:1014B00080FF35C083E50E9458130E94221483E503
:1014C000EFCF843859F40E94300882FF28C087E4A7
:1014D0000E9458130E94221487E4E2CF9CEF980FD9
:1014E000913AF0F290E2980F983050F4877091E0C2
:1014F00001C0990F8A95EAF7892F0E94DF13D2CF96
:101500009BE5980F933020F490E080E00C94520813
:10151000885A853120F490E080E00C9468080895A2
:10152000882321F00E94D9130C9422140895882353
:1015300021F00E94DF130C94221408958F929F9241
:10154000AF92BF92DF92EF92FF920F931F93CF93D0
:10155000DF9300D000D00F92CDB7DEB77C016D8352
:101560007983FC01058102950F70128111110E948F
:10157000F8130E945113D82E882371F01123A1F083
:101580008D81805E883080F082E00E943B130E9453
:10159000511391E0D82ED926E981E295EF70F0E061
:1015A000ED50FE4D0C948F21D12CF6CF09810F7098
:1015B000F981F07F11F00295007F1123B1F0002333
:1015C00061F08D81805E883018F02D81211109C075
:1015D000802F0E94D9130E9422148D810E946509D8
:1015E00015C0802F0E94EA13F6CF8D810E94410A18
:1015F000002361F08D81805E883018F03D813111CB
:1016000029C0802F0E94DF130E942214DD2009F4DC
:10161000D3C10E942E1380FDCFC1F70112820E9418
:1016200028130E947111C7010E94ED0C0E9428131B
:101630000F900F900F900F900F90DF91CF911F910F
:101640000F91FF90EF90DF90BF90AF909F908F90A1
:101650000C949311802F0E94F013D6CF49814F70C4
:10166000B42E5981507F503219F0B29480EFB822D5
:101670008D81882369F0813029F1112369F10023DC
:1016800059F0F701858180FFA8CF8F70858304C052
:10169000112361F0011104C08B2D0E94900AB6CF76
:1016A0008B2D0130D1F70E940C14B0CF011106C070
:1016B0000E940F148B2D0E94970AA8CF013009F4C5
:1016C000A5CFF6CF112321F0063008F09FCFE4CF4D
:1016D000053008F09BCFEECF002361F38D810E948F
:1016E000410A94CF898186958695837069F081300F
:1016F00009F08CCF8D8199819370111102C090E017
:1017000080E00E94680882CF8D81998193701111C9
:1017100002C090E080E00E94520878CF8D811123B2
:1017200029F00E9486170E946D1870CF0E94EE1754
:10173000FACF8981837009F05FC0111167CF2D81C5
:10174000229526952770220F220F8D818F7090E0B1
:10175000B0E0A0E04C015D01022E04C0880C991C91
:10176000AA1CBB1C0A94D2F7FD8160E070E0CB019B
:10177000F4FF0FC06FE070E080E090E004C0660FFF
:10178000771F881F991F2A95D2F7609570958095CD
:10179000909529812695269523702D832230B1F0CE
:1017A000233019F19B01AC01282939294A295B29E9
:1017B00029833A834B835C833D8169817A818B8164
:1017C0009C813130B1F00E94FE1020CF9B01AC0112
:1017D000282939294A295B2929833A834B835C8349
:1017E000CA01B9010E94281111CF0E94FE10C50143
:1017F000B4010E94D4100ACF8695112311F089817B
:101800008170882309F402CF2D81229526952770B7
:10181000220F220F8D818F7090E0B0E0A0E04C018C
:101820005D01022E04C0880C991CAA1CBB1C0A94E2
:10183000D2F73D8160E070E0CB0134FF0FC06FE074
:1018400070E080E090E004C0660F771F881F991F4A
:101850002A95D2F760957095809590954981469527
:10186000469543704D834230B1F0433019F19B01EE
:10187000AC01282939294A295B2929833A834B83DA
:101880005C833D8169817A818B819C813130B1F0AB
:101890000E940412BBCE9B01AC01282939294A2998
:1018A0005B2929833A834B835C83CA01B9010E9477
:1018B0002E12ACCE0E940412C501B4010E94DA11AE
:1018C000A5CE3D81323F09F447C080F4303F79F125
:1018D000313FD9F1832F805E8031D0F0112309F49C
:1018E00056C001117ACE89818F7133C04D81433F3B
:1018F000D1F1443F99F7112309F43FC089818F71D9
:1019000089830E94711163E089810E9432137ECE27
:101910005D815F705D8389818F71112321F00E9449
:1019200071118D81BACE0E9493118D81C4CE112385
:1019300041F0053008F06ACE89818F710E94B8119C
:1019400065CE063008F062CEF7CF89818F71112302
:1019500039F00E9471115ACE89818F711123C9F318
:101960000E94931153CE112329F089818F710E9417
:101970005C114CCE0E94521149CE81E00E943B1373
:10198000023008F443CE82E00E943B133FCE0111A7
:10199000A5CE89818F71E4CF49814F706D81C701D8
:1019A0000E9455030E944D1031CE49814F706D81C8
:1019B000C7010E94A5042ACE0F900F900F900F90A0
:1019C0000F90DF91CF911F910F91FF90EF90DF90DB
:1019D000BF90AF909F908F9008950F931F93CF93D8
:1019E000DF93EC018B819C81892B29F0888199817F
:1019F00089238F3F29F4DF91CF911F910F91089593
:101A0000CE010E946E038823B1F3688179818A81B7
:101A10000E94FE128C010E9458120E94C910B80147
:101A2000CE01DF91CF911F910F910C949E0A0E94DD
:101A3000F8130E9409140E94CB130E9422140E94E2
:101A40005E190E946D1890E080E00E94520890E0BC
:101A500080E00C9468080E94E7130C94170D0E9414
:101A6000F212282F892F82958F70903C80F48A3053
:101A7000B0F4843020F4823090F480E00895863011
:101A8000E1F781E0203E88F0213FB9F70EC08C30AD
:101A900011F08F3091F793FB882780F9089581E04A
:101AA000203F39F018F4203E40F70895243F29F7ED
:101AB000FCCF0895CF93DF9300D000D00F92CDB725
:101AC000DEB70F900F900F900F900F90DF91CF9196
:101AD0000895CF93DF9300D000D000D0CDB7DEB70C
:101AE00026960FB6F894DEBF0FBECDBFDF91CF9123
:101AF00008951F93CF93DF93E091630116E08091E7
:101B000064018E1304C0DF91CF911F910895CE2FF1
:101B1000D0E01E9FF0011124EB59FE4F408151810E
:101B200062817381848195810E94690DFE013196E5
:101B3000E770E5CF40919501509196016091970132
:101B4000709198018091990190919A010C94690D7E
:101B50001F93CF93DF9380919A01807FC1F480918E
:101B600097018823A1F080916301C0916401609185
:101B70009501709196014091980150919901D62F4D
:101B8000D723DA01A095B09516E0C81304C0DF9101
:101B9000CF911F91089590E04115510511F0DF3F5D
:101BA00031F401968770F1CF2A0F3B1F17C0189FA1
:101BB000F001199FF00D1124EB59FE4F21812713DD
:101BC000F0CF20812613EDCF22812111EACF23818E
:101BD00034812417350740F3241B350B283C31058D
:101BE00000F720919A012F70206120939A0126E03E
:101BF000289FF001299FF00D1124E659FE4F8081A6
:101C00008F708061808385E991E00E94ED0CDF9107
:101C1000CF911F910C94790D9F92AF92BF92CF926A
:101C2000DF92EF92FF920F931F93CF93DF93CDB785
:101C3000DEB72B970FB6F894DEBF0FBECDBF8C0179
:101C400085E0F801DE01179601900D928A95E1F783
:101C5000D8014C9111965C9111971296EC901297C5
:101C60008091980190919901009709F46BC120919E
:101C7000950130919601632F62236F3F09F462C191
:101C80001396CD90DC9090909701992009F4F8C0BC
:101C9000C816D90608F43FC0F601E81BF90BCF01BE
:101CA000FF24F394883C910508F0F12C85E9A82ED7
:101CB00081E0B82E80919A01982F907FFF2009F43F
:101CC000B7C0911180C0FE2C35132AC0241328C040
:101CD000E11026C08F70806180939A010E949A0D56
:101CE000C5010E94ED0C80919A01D80115968C9344
:101CF0008F2D2B960FB6F894DEBF0FBECDBFDF91B0
:101D0000CF911F910F91FF90EF90DF90CF90BF90F8
:101D1000AF909F900895809590958C0D9D1DC0CF9C
:101D2000CD2829F0842F85238F3F09F019C180E049
:101D3000B82FB170DB2EE09163012091640136E091
:101D400080FD1CC0EE20A1F280919A0181608093F9
:101D50009A01F12CCDCF8E2F90E03E9FF0011124FF
:101D6000EB59FE4F6181651306C06081641303C0A7
:101D700062816E11E7CFFC013196E770E213EBCF81
:101D80004F8358878F8198850E94F212292F2295C0
:101D90002F70903260F0225F2F70223078F49F70A5
:101DA00051F0F8019581907F31F4D12C0AC09F70D9
:101DB00011F08823D1F3805E8830B8F3C8010E9407
:101DC000ED0CFD2C95CF351306C0241304C0D801AB
:101DD000EE2009F47BC04F8358878F8198850E943D
:101DE0002F0D882309F4B8C0EE2009F4B5C0809106
:101DF0009A01803270F020919501309196013A83DA
:101E000029831B82DD82CC828E83CE0101960E94C3
:101E1000ED0C86E0F801A5E9B1E001900D928A95FC
:101E2000E1F70E94A80D0E949A0DFF24F39460CF61
:101E3000911113C07C2DDB86CA866E2D8B850E9486
:101E40005A0D85E991E00E94ED0C86E0F5011192B2
:101E50008A95E9F70E949A0D4BCF3513BCCF241316
:101E6000BACFE110B8CFD80115968C93C8010E9463
:101E7000ED0C86E0F50111928A95E9F7F92C38CF3F
:101E8000C816D90688F1B601681B790BCB01F12C75
:101E9000883C910508F047C0FE2CEE2009F45CC098
:101EA000351330C024132EC080919A0180FD21C0CB
:101EB000982F907FF1F0D80115968C931597903F4D
:101EC00039F0982F907F905F8F70892B15968C93A7
:101ED000C8010E94ED0C86E0F801A5E9B1E001908F
:101EE0000D928A95E1F7B6CF809590958C0D9D1D4A
:101EF000CECF86E0F801A5E9B1E001900D928A9578
:101F0000E1F7F6CE4F8358878F8198850E942F0D79
:101F100081117FCF80919A01816080939A01C801DD
:101F20000E94ED0CE5CE7C2DDB86CA866E2D8B855E
:101F30000E945A0D86E0E5E9F1E0DF011D928A95E5
:101F4000E9F788CFEE2041F04F8358878F8198853D
:101F50000E942F0D81115DCFC8010E94ED0C65CF4D
:101F600081E08E25E5CE1F93CF93DF93CDB7DEB70B
:101F70002C970FB6F894DEBF0FBECDBF4F835887A6
:101F800069877A878B879C87CE0107960E940C0E03
:101F9000882369F08A859B85892B39F04F81588584
:101FA000842F85238F3F09F071C016E05FC086E063
:101FB000FE013796DE01119601900D928A95E1F7A8
:101FC0008A859B85892B89F388859F8189238F3F0B
:101FD00061F32091640130E0C9010196877099276F
:101FE000409163014817190671F40E942B0D10925D
:101FF00064011092630186E0E5E9F1E0DF011D92E2
:102000008A95E9F7D2CF96E0929FD001939FB00DC9
:102010001124AB59BE4FFE01319601900D929A9555
:10202000E1F7809364010E94790DBFCF819FC001C9
:1020300011248B599E4F0E940C0E8823E9F0E091E9
:1020400063011E9FF0011124EB59FE4F4081518125
:1020500062817381848195810E94690D8091630101
:1020600090E00196877099278093630180916301C6
:10207000909164018913DACF2C960FB6F894DEBFE5
:102080000FBECDBFDF91CF911F91089569857A85ED
:102090008B859C850E94690D88CFEF92FF920F93EC
:1020A0001F93CF93DF938C01892B89F0F12CEE24C1
:1020B000E394E8012196F8018491843709F457C02C
:1020C000A0F4823009F43EC048F48130D1F0DF91B1
:1020D000CF911F910F91FF90EF9008959CEF980F73
:1020E0009037A8F70E9465090AC0853709F44CC0EB
:1020F0009CE7980F903758F78F770E94410A8E011E
:1021000016C00E5F1F4FFE01849190E2980F983029
:1021100060F48770FE2D01C0FF0F8A95EAF78F2FBC
:102120000E94FB130E94221402C00E9465098F2D99
:10213000815008F4BECFEFE9FFE03197F1F700C01E
:102140000000F6CF0E5F1F4FFE01849190E2980FC2
:10215000983050F48770FE2D01C0FF0F8A95EAF782
:102160008F2F0E940114DECF0E94410AE0CF0E5F44
:102170001F4FFE01C491C150D0F28FE99FE001973B
:10218000F1F700C00000F7CF0E5F1F4FFE01F49083
:10219000CECF08956093B3017093B4018093B501DD
:1021A0009093B6010C94170DCF93DF9300D000D01D
:1021B000CDB7DEB769837A838B839C838091B3012B
:1021C0009091B401A091B501B091B60129813A81F5
:1021D0004B815C81822B932BA42BB52B8093B30175
:1021E0009093B401A093B501B093B6010F900F90F6
:1021F0000F900F90DF91CF910C94170DCF93DF9339
:1022000000D000D0CDB7DEB769837A838B839C83FF
:102210008091B3019091B401A091B501B091B60144
:1022200029813A814B815C8182239323A423B523A6
:102230008093B3019093B401A093B501B093B6011C
:102240000F900F900F900F90DF91CF910C94170D7E
:10225000CF93DF9300D000D0CDB7DEB769837A8308
:102260008B839C838091B3019091B401A091B501BF
:10227000B091B60129813A814B815C8182279327F5
:10228000A427B5278093B3019093B401A093B5011F
:10229000B093B6010F900F900F900F90DF91CF91F8
:1022A0000C94170D1092AF011092B0011092B10171
:1022B0001092B2010C94170D41E050E060E070E024
:1022C00004C0440F551F661F771F8A95D2F74093AD
:1022D000AF015093B0016093B1017093B2010C94BF
:1022E000170D282F81E090E0A0E0B0E004C0880F37
:1022F000991FAA1FBB1F2A95D2F74091AF01509199
:10230000B0016091B1017091B201842B952BA62B85
:10231000B72B8093AF019093B001A093B101B0931C
:10232000B2010C94170D41E050E060E070E004C091
:10233000440F551F661F771F8A95D2F74095509519
:10234000609570958091AF019091B001A091B1011D
:10235000B091B20184239523A623B7238093AF01C4
:102360009093B001A093B101B093B2010C94170DFA
:10237000282F81E090E0A0E0B0E004C0880F991F12
:10238000AA1FBB1F2A95D2F74091AF015091B0010F
:102390006091B1017091B20184279527A627B727D4
:1023A0008093AF019093B001A093B101B093B201BB
:1023B0000C94170DCF93DF9300D000D0CDB7DEB7CC
:1023C00069837A838B839C838091AF019091B00164
:1023D000A091B101B091B20129813A814B815C8118
:1023E000822B932BA42BB52B8093AF019093B0013C
:1023F000A093B101B093B2010F900F900F900F9086
:10240000DF91CF910C94170DCF93DF9300D000D0C4
:10241000CDB7DEB769837A838B839C838091AF01CC
:102420009091B001A091B101B091B20129813A819E
:102430004B815C8182239323A423B5238093AF0136
:102440009093B001A093B101B093B2010F900F909F
:102450000F900F90DF91CF910C94170DCF93DF93D6
:1024600000D000D0CDB7DEB769837A838B839C839D
:102470008091AF019091B001A091B101B091B201F2
:1024800029813A814B815C8182279327A427B52734
:102490008093AF019093B001A093B101B093B201CA
:1024A0000F900F900F900F90DF91CF910C94170D1C
:1024B0000895E82F2AE0929FE00D11248E2F877057
:1024C00041E001C0440F8A95EAF7E695E695E69566
:1024D00085E0E89FF0011124E556FE4F30E020E052
:1024E00070E05191DF011197CB01022E02C0969549
:1024F00087950A94E2F78170819585278423852743
:102500008C932F5F3F4F2530310559F70895E82F01
:102510002AE0929FE00D11249E2F9770E695E69594
:10252000E69585E0E89FF0011124E556FE4F50E066
:1025300040E080E0219130E0092E02C036952795D9
:102540000A94E2F721703327042E01C0220F0A9467
:10255000EAF7822B4F5F5F4F4530510559F70895D9
:10256000BF92CF92DF92EF92FF920F931F93CF9380
:10257000DF938C01C090AF01D090B001E090B10129
:10258000F090B2018091B3019091B401A091B50196
:10259000B091B601C82AD92AEA2AFB2ACFE1D0E0B5
:1025A000BC2ED701C6010C2E04C0B695A7959795F1
:1025B00087950A94D2F780FD0EC0219788F7B12C39
:1025C0008B2DDF91CF911F910F91FF90EF90DF90B6
:1025D000CF90BF900895B8018C2F0E94C20401973C
:1025E00061F3EECFCF93DF93D82FC92F0E94B012A3
:1025F0006D2F7C2FDF91CF910C94C2041F93CF934A
:10260000DF93162FD72F90916201992339F0862FEF
:10261000972FDF91CF911F910C94F212882391F0A4
:10262000862F972F0E94B012C82F682F812F9D2FC1
:102630000E945912612F7D2F8C2FDF91CF911F9116
:102640000C94C204862F972F0E948712C82FF2CFB6
:102650008091B70185958595859508958091B701FD
:102660008770089598E0899F90011124622B6093F0
:10267000B7010C9471119091B701809589238093D3
:10268000B701282F277061F4282F082E000C330B78
:102690009217130629F08595859585950C949311CD
:1026A00008959091B701977081E009F480E0089552
:1026B000909112019923E1F090910D0297FF18C0BB
:1026C000E82FE695E695E695EF3139F12091000186
:1026D00030910101E20FF32FF11D877021E030E00E
:1026E00001C0220F8A95EAF78181822B81830895A8
:1026F0002091000130910101F90132969FEF40E0F5
:102700005191851751F09F3F19F4511101C0942F39
:102710004F5F4E31A9F79F3F09F40895290F311DEE
:1027200097FD3A95F90182830895909112019923BA
:1027300001F190910D0297FF1CC0E82FE695E695F8
:10274000E695EF3139F12091000130910101E20F5E
:10275000F32FF11D877021E030E0A90102C0440F82
:10276000551F8A95E2F7CA0180959181892381835B
:1027700008952091000130910101F9013296205E07
:102780003F4F9191891303C0DF0111971C92E2170B
:10279000F307B9F7089581E090E0E0910001F0912E
:1027A0000101E80FF91F1082019680329105A9F707
:1027B00008959091DB01982B9093DB010895982F59
:1027C00090958091DB0189238093DB01089510921D
:1027D000DB0108959091DA01982B9093DA01089526
:1027E000982F90958091DA0189238093DA010895DA
:1027F0001092DA0108959091D901982B9093D90104
:102800000895982F90958091D90189238093D901BB
:1028100008951092D90108958093B80108951092F7
:10282000B80108952091000130910101F90131961C
:10283000205E3F4F80E0919191118F5FE217F30787
:10284000D1F70895E0910001F09101018091DB0141
:102850008083E0910001F091010180819091DA0183
:10286000892B8083E0910001F0910101808190919A
:10287000D901892B80839091B801992361F0E0916F
:102880000001F09101018081892B80830E94121444
:1028900081111092B80180910001909101010C9476
:1028A0003C086DEE7EEF90E080E00E94C92160E080
:1028B00082E090E00E94B72160E083E090E00E9417
:1028C000B72160E084E090E00E94B72160E085E0FD
:1028D00090E00C94B72190E080E00E94B1219C012F
:1028E00081E02D3E3E4F09F080E0089582E090E0C7
:1028F0000C94A921682F82E090E00C94B72183E02A
:1029000090E00C94A921682F83E090E00C94B7210B
:1029100084E090E00C94A921682F84E090E00C946E
:10292000B72180911302843039F11092DD0188E1E2
:1029300090E020E40FB6F894A895809360000FBE55
:102940002093600080E00E94A30483B7817F8460AD
:1029500083BF83B7816083BF7894889583B78E7F68
:1029600083BF0FB6F894A89580916000886180932A
:102970006000109260000FBE089508950895CF93EF
:102980000E94BD140E945E070E94BE14C0E08C2FFE
:102990000E942108892B31F4CF5FC330C1F780E05A
:1029A000CF91089581E0FCCF0E942B0D0E9430084A
:1029B0000C94A3041F921FB61F9211248F939F9310
:1029C000AF93BF938091DD01811113C08091090203
:1029D00090910A02A0910B02B0910C024196A11DA8
:1029E000B11D8093090290930A02A0930B02B09349
:1029F0000C02BF91AF919F918F911F901FBE1F90AE
:102A0000189582E084BD93E095BD9AEF97BD8093C1
:102A10006E0008952FB7F8948091090290910A02F0
:102A2000A0910B02B0910C022FBF0895CF92DF92BC
:102A3000EF92FF929C014FB7F89480910902909118
:102A40000A02A0910B02B0910C024FBF6C017D01F4
:102A5000EE24FF24A90170E060E0C416D506E60666
:102A6000F70638F0821B930BFF90EF90DF90CF902A
:102A700008950197F7CF1F921FB61F9211248F93CD
:102A80009F93AF93BF938091090290910A02A09106
:102A90000B02B0910C020196A11DB11D8093090299
:102AA00090930A02A0930B02B0930C02BF91AF91D6
:102AB0009F918F911F901FBE1F9018950E94521DCD
:102AC000F8942FEF87EA91E6215080409040E1F79B
:102AD00000C0000087E090EBDC0180931C02909323
:102AE0001D02A0931E02B0931F0288E19CE00FB666
:102AF000F894A895809360000FBE90936000FFCF7C
:102B0000AF92BF92CF92DF92EF92FF920F931F93FB
:102B1000CF93C0E0AA24A394B12CE82EF12C8C2FE3
:102B20000E9421086C0110E000E0C501002E02C0E7
:102B3000880F991F0A94E2F78C219D21892B99F027
:102B4000602F7C2F80E00E94A604E816F90659F455
:102B500081E0CF911F910F91FF90EF90DF90CF9088
:102B6000BF90AF9008950F5F1F4F0A301105E9F62F
:102B7000CF5FC330A1F680E0ECCFCF93C82F8CE2BB
:102B80000E948015882321F08C2FCF910C94801502
:102B900080E0CF910895CF93DF9300D000D0CDB7E0
:102BA000DEB70E946B14811102C00E94511495E699
:102BB000998308C00E945E078FE39CE90197F1F7B3
:102BC00000C00000A981A150A983A111F3CF89E21F
:102BD0000E94BD15811110C18AE20E94BD158111AC
:102BE0000E94511485E00E94BD1581110E945E155E
:102BF0000E9476148093DC0187E00E94BD15882333
:102C000071F08BE10E94BD15882309F4D1C0909129
:102C1000DC01892F8D7F91FF82608093DC018091A0
:102C2000DC010E947A140E94881490E090930E02B6
:102C300080930D0280EE0E94BD15882341F0909193
:102C40000D02892F8E7F90FF816080930D0289E3B2
:102C50000E94BD15882341F090910D02892F8D7F30
:102C600091FF826080930D0282EE0E94BD15882341
:102C700041F090910D02892F8B7F92FF84608093A9
:102C80000D0286EE0E94BD15882341F090910D0241
:102C9000892F877F93FF886080930D0283EE0E94C7
:102CA000BD15882341F090910D02892F8F7E94FFEE
:102CB000806180930D0285E30E94BD15882341F059
:102CC00090910D02892F8F7D95FF806280930D0278
:102CD00081E30E94BD15882341F090910D02892F58
:102CE0008F7B96FF806480930D0281E10E94BD1569
:102CF000882341F090910D02892F97FB87F9805826
:102D000080930D0280910D020E948C1487E20E9434
:102D1000BD1589838EE10E94BD15882319F0B98104
:102D2000B260B9838FE10E94BD15882319F0298113
:102D30002460298380E20E94BD15882319F039811F
:102D40003860398381E20E94BD15882319F04981DA
:102D50004061498382E20E94BD15882319F05981A0
:102D60005062598383E20E94BD15882319F089813E
:102D70008064898384E20E94BD158823B1F1998122
:102D80009068998389810E9483143981232F30E0D0
:102D900050E040E029833A834B835C83CA01B90148
:102DA0000F900F900F900F90DF91CF910C94CA105D
:102DB0008EE00E94BD15882339F09091DC01892FA7
:102DC0008B7F92FF846029CF80E10E94BD15909196
:102DD000DC01882329F0892F877F93FF88601DCF2E
:102DE000892F8E7F90FF816018CFA981A111CACF52
:102DF0000E947F14282FCBCF0F900F900F900F9031
:102E0000DF91CF9108958091E00180FF12C0609121
:102E1000050185E0689FB00111247595679575954A
:102E2000679560387105A8F561157105A1F1862FC8
:102E3000089581FF09C06091050185E0689FB00198
:102E4000112475956795EDCF6091050182FD0AC04B
:102E50008091E1018823D1F09091040160910501F6
:102E6000891728F085E0689FB0011124DACF869F8A
:102E7000B001112485E0869F9001879F300D1124B9
:102E8000692F70E0C9010E947B21CBCF65E070E023
:102E9000CECF8FE7089581E008958091E00180FF13
:102EA0000CC06091030170E0759567957595679505
:102EB0006115710549F1862F089581FF06C0609163
:102EC000030170E075956795F3CF6091030182FD72
:102ED0000BC09091E1019923A1F0609102018091D2
:102EE0000301961738F0682F70E06038710500F321
:102EF0008FE70895899FC001112470E00E947B2113
:102F0000F4CF61E070E0D7CF81E00895803F31F4E5
:102F10000E94031781958093E4010895813F19F47D
:102F20000E940317F8CF823F31F40E940317819566
:102F30008093E3010895833F19F40E940317F8CFAB
:102F4000893F29F40E944D178093E50108958A3F37
:102F500021F40E944D178195F7CF8B3F31F40E94E9
:102F60004D1781958093E60108958C3F19F40E94D6
:102F70004D17F8CF843F31F48091E2018160809356
:102F8000E2010895853F21F48091E2018260F7CF4C
:102F9000863F21F48091E2018460F1CF873F21F4E4
:102FA0008091E2018860EBCF883F21F48091E201BB
:102FB0008061E5CF8D3F31F48091E00181608093A5
:102FC000E00108958E3F21F48091E0018260F7CF07
:102FD0008F3FB9F78091E0018460F1CF9091E301D8
:102FE000803F41F48091E40187FD1092E401992330
:102FF00071F00895813F29F48091E4011816ACF333
:10300000F6CF823F81F497FFF2CF1092E3018091D7
:10301000E4019091E501892B9091E601892B49F714
:103020001092E1010895833F19F4191674F3DFCF6C
:10303000893F39F48091E5011816CCF61092E5012C
:10304000D6CF8A3F29F48091E50187FFD0CFF6CF14
:103050008B3F39F48091E60187FFC9CF1092E601DA
:10306000C6CF8C3F29F48091E6011816BCF3BFCF80
:10307000843F31F48091E2018E7F8093E201B7CFEB
:10308000853F21F48091E2018D7FF7CF863F21F4C7
:103090008091E2018B7FF1CF873F21F48091E201A3
:1030A000877FEBCF883F21F48091E2018F7EE5CFCF
:1030B0008D3F31F48091E0018E7F8093E00197CFC6
:1030C0008E3F21F48091E0018D7FF7CF8F3F09F093
:1030D0008ECF8091E0018B7FF0CF82EE91E00E9455
:1030E00047080E940A159093DF018093DE0108953E
:1030F0001F93CF93DF9300D000D000D0CDB7DEB7C1
:103100008091DE019091DF010E941615AC01809143
:10311000E1012091060130E0811106C020910701F4
:103120009AE0299F900111244217530788F02091BB
:10313000E301A091E401A9831091E501B091E601BA
:10314000BE8321110FC09A2F912B9B2B09F0B2C087
:1031500026960FB6F894DEBF0FBECDBFDF91CF919C
:103160001F9108958F3F19F08F5F8093E101121630
:1031700024F40E9403178093E3018091E30187FF09
:1031800005C00E94031781958093E30129811216DF
:1031900024F40E9403178093E4018091E40187FFE7
:1031A00005C00E94031781958093E4018091E3019B
:1031B000882309F455C03091E4013D83332309F499
:1031C0004FC0282F880F330B440B550B29833A83AC
:1031D0004B835C83CA01B9010E94822023E333E35D
:1031E00043E35FE369837A838B839C8369817A817C
:1031F0008B819C810E94E62069837A838B839C83E8
:1032000069817A818B819C810E944A206093E301CD
:103210008D81082E000C990BAA0BBB0B89839A8316
:10322000AB83BC83BC01CD010E94822023E333E346
:1032300043E35FE369837A838B839C8369817A812B
:103240008B819C810E94E62069837A838B839C8397
:1032500069817A818B819C810E944A206093E4017C
:10326000111624F40E944D178093E5018091E50129
:1032700087FF05C00E944D1781958093E5019E81CF
:10328000191624F40E944D178093E6018091E601FF
:1032900087FF05C00E944D1781958093E601269611
:1032A0000FB6F894DEBF0FBECDBFDF91CF911F9157
:1032B0000C946D188F3F09F057CF68CF85E0E2EE90
:1032C000F1E0DF011D928A95E9F71092E101109279
:1032D000E0010895809107020895CF93DF9300D015
:1032E0000F92CDB7DEB720911302243019F523E0F9
:1032F00029838A839B832093E9008FEF9091E800D4
:10330000815095FD06C095ED9A95F1F70000811169
:10331000F5CF8091E80085FF0DC050E040E063E00C
:1033200070E0CE0101960E94CA1B8091E8008E7762
:103330008093E8000F900F900F90DF91CF91089548
:10334000CF93DF9300D00F92CDB7DEB79C01809171
:103350001302843031F582E08983205831093B83A0
:103360002A8383E08093E9008FEF9091E8008150F9
:1033700095FD06C095ED9A95F1F700008111F5CF06
:103380008091E80085FF0DC050E040E063E070E010
:10339000CE0101960E94CA1B8091E8008E7780932F
:1033A000E8000F900F900F90DF91CF91089520913A
:1033B00013022430F1F422E02093E9002FEF309142
:1033C000E800215035FD06C035ED3A95F1F70000D3
:1033D0002111F5CF2091E80025FF0BC050E040E01F
:1033E00065E070E00E94CA1B8091E8008E778093B0
:1033F000E8000895CF93DF93D82FC92F809113024F
:103400008430F1F4909112019923E9F090910D022A
:1034100097FF19C08093E9008FEF9091E8008150E9
:1034200095FD06C095E19A95F1F700008111F5CF61
:103430008091E80050E040E060E270E085FD1AC055
:10344000DF91CF91089581E08093E9008FEF909113
:10345000E800815095FD06C095ED9A95F1F70000C2
:103460008111F5CF8091E80085FFEACF50E040E080
:1034700068E070E08D2F9C2F0E94CA1B8091E800AD
:103480008E778093E80080E2ED2FFC2FA7EEB1E06D
:1034900001900D928A95E1F7D3CF809112028111AC
:1034A00009C00E94521D0E94AF1D8091E2008460FD
:1034B0008093E200089510921202089508950895ED
:1034C0000C94D41442E061EC81E00E94CE1C42E0F6
:1034D00061EC82E00E94CE1C42E061EC83E00E943D
:1034E000CE1C42E261EC84E00C94CE1C809115026B
:1034F000893089F148F4823009F494C0833009F4AA
:103500004FC0813041F008958A3009F47BC08B3080
:1035100009F461C0089580911402813A09F03FC016
:103520008091E800877F8093E80080911802909155
:103530001902892B61F460E287EE91E070E00E944D
:10354000191C8091E8008B778093E800089560E073
:1035500090E080E0F3CF80911402813201F58091F8
:10356000180290911902009711F00397C1F480910D
:10357000E800877F8093E8008091E80082FF0BC01D
:103580008091F100809307028091E8008B7780930F
:10359000E8000C94021D809113028111EDCF089573
:1035A00080911402813AD9F7809118029091190202
:1035B000892BA9F78091E800877F8093E8008091AC
:1035C000E80080FFFCCF809112018093F100809190
:1035D000E8008E77DCCF80911402813201F7809170
:1035E000180290911902892BD1F68091E800877F0B
:1035F0008093E8000E94021D8091160280931201C0
:103600000C942B0D80911402813249F68091E800D0
:10361000877F8093E8000E94021D809117028093AB
:103620000802089580911402813A09F0B8CF809180
:10363000E800877F8093E8008091E80080FFFCCF5E
:1036400080910802C2CF84B7877F84BF0FB6F894F9
:10365000A89580916000886180936000109260005E
:103660000FBE80E880936100109261000E947F0885
:103670000E94521D0E94AF1D8091E20084608093E1
:10368000E20078940E942F200E94810888E091E057
:103690000E942B0880911302853019F00E94870840
:1036A000F9CF0E94911480911102882399F30E940E
:1036B000BF14882379F30E94B41BECCF9C01DA017C
:1036C000892F992783309105C1F068F481309105E5
:1036D00009F445C0029761F48DE690E02CE934E0EE
:1036E0002D933C93089581329105E1F0829739F151
:1036F00090E080E030E020E0F3CFC901992721304D
:1037000059F08230910559F0E8E9F4E0892B81F70E
:10371000849190E09F01E4CFE0E8F4E0F9CFECE69B
:10372000F4E0F6CF643020F7E62FF0E0EE0FFF1F55
:10373000E45DFE4F2081318189E090E0D1CF64309B
:10374000B8F670E0FB01EE0FFF1FEC5DFE4F20812D
:103750003181605E7E4FFB01808190E0C1CF82E1CC
:1037600090E029E035E0BCCF80E189BD82E189BDF0
:1037700009B400FEFDCF8091D8008F7D8093D800E2
:103780008091E00082608093E0008091E00081FD04
:10379000FCCF0895AF92BF92CF92DF92FF920F932A
:1037A0001F93CF93DF936C01EB018A010E94211DCF
:1037B000F82E811123C00115110539F0F80180811F
:1037C0009181C81BD90BC80ED91EB12CA12C2097F2
:1037D000A9F08091E80085FD22C08091E8008E77F5
:1037E0008093E80001151105A1F0F8018081918115
:1037F000A80EB91EB182A08285E0F82E8F2DDF9130
:10380000CF911F910F91FF90DF90CF90BF90AF901D
:1038100008950E94211D8823D1F2F82EEFCFF601E2
:1038200081916F018093F1002197FFEFAF1ABF0ADA
:10383000CECFFC01CB0120911A0230911B0226173A
:10384000370790F0009729F42091E8002E77209315
:10385000E80040E0009751F4411108C08091E80071
:1038600082FF31C080E00895C901F3CF2091130297
:103870002223A9F12530A9F12091E80023FD2DC0D4
:103880002091E80022FDEACF2091E80020FFE2CF5E
:103890003091F3002091F200009719F028303105A3
:1038A00058F041E02830310509F040E02091E8006F
:1038B0002E772093E800CECF41914093F1000197FD
:1038C0002F5F3F4FE9CF80911302882341F085306D
:1038D00041F08091E80083FFC1CF81E0089582E04C
:1038E000089583E00895FC01CB0120911A023091E4
:1038F0001B022617370790F0009729F42091E80063
:103900002E772093E80040E0009751F4411108C061
:103910008091E80082FF32C080E00895C901F3CFB2
:10392000209113022223B1F12530B1F12091E8005A
:1039300023FD2EC02091E80022FDEACF2091E8006F
:1039400020FFE2CF3091F3002091F200009719F0B0
:103950002830310558F041E02830310509F040E0C9
:103960002091E8002E772093E800CECF4491409339
:10397000F100319601972F5F3F4FE8CF80911302FE
:10398000882341F0853041F08091E80083FFC0CF6B
:1039900081E0089582E0089583E00895982F97309C
:1039A00028F08F708093E90081E008959093E900FA
:1039B000242F762F50E0981731F07091EC00209171
:1039C000ED005091F00021FD02C09F5FE8CF3091E3
:1039D000EB003E7F3093EB003091ED003D7F309364
:1039E000ED003091EB0031603093EB007093EC0010
:1039F0002093ED005093F0002091EE0027FDE5CFDD
:103A000080E008958091140287FF13C08091E80040
:103A100082FF06C08091E8008B778093E80004C0A5
:103A2000809113028111F2CF0895809113028823AF
:103A3000D9F38091E80080FFF8CF8091E8008E777D
:103A4000ECCF2091E4003091E50095E6A9012091AA
:103A5000EC00822F817020FF06C08091E80080FF7B
:103A600006C080E008952091E80022FD1AC08091F0
:103A70001302882389F0853089F08091EB0085FD61
:103A80000FC02091E4003091E50042175307F9F28E
:103A90009150E1F684E0089582E0089583E008956E
:103AA00081E008950E94C01D0E94C81DE0EEF0E074
:103AB000808181608083E8EDF0E080818F77808372
:103AC00019BCA7EDB0E08C918E7F8C9380818F7EA6
:103AD00080831092120208950F931F93CF93DF9368
:103AE0000E94C01D0E94C81DC8EDD0E088818F775C
:103AF000888388818068888388818F7D888319BCCA
:103B00001092130210920F021092110210921002E2
:103B100000EE10E0F80180818B7F808388818160D6
:103B2000888342E060E080E00E94CE1CE1EEF0E09D
:103B300080818E7F8083E2EEF0E0808181608083EF
:103B4000808188608083F80180818E7F8083888176
:103B500080618883DF91CF911F910F910895E8EDE7
:103B6000F0E080818F7E8083E7EDF0E080818160EE
:103B7000808384E082BF81E0809312020C946C1DEC
:103B8000E8EDF0E080818E7F80831092E20008955E
:103B90001092DA001092E10008951F920F920FB672
:103BA0000F9211242F933F934F935F936F937F93C3
:103BB0008F939F93AF93BF93EF93FF938091E10017
:103BC00082FF0BC08091E20082FF07C08091E1007C
:103BD0008B7F8093E1000E942E208091DA0080FF8D
:103BE00019C08091D80080FF15C08091DA008E7FC7
:103BF0008093DA008091D90080FF94C080E189BD74
:103C000082E189BD09B400FEFDCF81E080931302FB
:103C10000E944D1A8091E10080FF19C08091E2005E
:103C200080FF15C08091E2008E7F8093E20080913A
:103C3000E20080618093E2008091D80080628093EE
:103C4000D80019BC85E0809313020E945F1A80910E
:103C5000E10084FF29C08091E20084FF25C080E15B
:103C600089BD82E189BD09B400FEFDCF8091D800F5
:103C70008F7D8093D8008091E1008F7E8093E1005A
:103C80008091E2008F7E8093E2008091E20081606B
:103C90008093E20080910F02882309F449C084E0F8
:103CA000809313020E94601A8091E10083FF29C073
:103CB0008091E20083FF25C08091E100877F80939F
:103CC000E10082E08093130210920F028091E100E4
:103CD0008E7F8093E1008091E2008E7F8093E200EE
:103CE0008091E20080618093E20042E060E080E049
:103CF0000E94CE1C8091F00088608093F0000E94AA
:103D00005E1AFF91EF91BF91AF919F918F917F913B
:103D10006F915F914F913F912F910F900FBE0F9038
:103D20001F90189519BC109213020E945B1A72CF53
:103D30008091E30087FD02C081E0B2CF83E0B0CF85
:103D40001F920F920FB60F9211242F933F934F9310
:103D50005F936F937F938F939F93AF93BF93CF9313
:103D6000DF93EF93FF93D091E900DF708091EC0037
:103D7000C82FC17080FDC0E81092E9008091F0006A
:103D8000877F8093F00078940E94E41E1092E900EF
:103D90008091F00088608093F000CD2BCF70C093AD
:103DA000E900FF91EF91DF91CF91BF91AF919F918A
:103DB0008F917F916F915F914F913F912F910F90D4
:103DC0000FBE0F901F9018951F93CF93DF93CDB721
:103DD000DEB7AA970FB6F894DEBF0FBECDBF84E161
:103DE00092E0FC0101962091F100208322E08C31C9
:103DF0009207B9F70E94761A8091E80083FF16C1F6
:103E000080911402909115029A3008F00FC1E92FA9
:103E1000F0E0ED5FFD4D0C948F21803881F0823809
:103E200009F004C1809118028F708093E90080919D
:103E3000EB0085FB882780F91092E90006C080918D
:103E4000100290911102911182609091E800977F89
:103E50009093E8008093F1001092F1008091E800C7
:103E60008E77E0C0882309F4CEC0823009F0DEC02E
:103E7000809116028111D1C0809118028F7009F4CF
:103E8000D5C08093E9002091EB0020FFC6C093309D
:103E900031F48091EB0080628093EB00BEC0909182
:103EA000EB0090619093EB0021E030E001C0220F25
:103EB0008A95EAF72093EA001092EA008091EB00DD
:103EC0008860EACF8111B2C0109116021F778091ED
:103ED000E3008078812B8093E3008091E800877F66
:103EE0008093E8000E94021D8091E80080FFFCCFD3
:103EF0008091E30080688093E30082E0111183E009
:103F00008093130293C08058823008F08FC0809154
:103F10001602909117028C3D23E09207A1F583E0F1
:103F20008A838AE289834FB7F894DE01139620E0F2
:103F30003EE051E2E32FF0E050935700E49120FF80
:103F400003C0E295EF703F5FEF708E2F90E0EA3094
:103F5000C0F0C7968D939D932F5F243159F74FBFC3
:103F60008091E800877F8093E8006AE270E0CE01EC
:103F700001960E94191C8091E8008B778093E800DD
:103F800055C0C096E7CFAE014F5F5F4F60911802FA
:103F90000E945E1BBC01892B09F448C08091E80097
:103FA000877F8093E80089819A810E94731CE3CF08
:103FB0008038E1F58091E800877F8093E800809168
:103FC0000F028093F1004ACF811130C09091160208
:103FD000923060F58091E800877F8093E8009093AD
:103FE0000F020E94021D80910F02882311F084E0CD
:103FF00005C08091E30087FDFACF81E08093130232
:104000000E94621A13C080911602813079F481E017
:10401000933009F080E0809311021092E9008091C2
:10402000E800877F8093E8000E94021D8091E800ED
:1040300083FF0AC08091E800877F8093E800809129
:10404000EB0080628093EB00AA960FB6F894DEBF77
:104050000FBECDBFDF91CF911F9108950895CF93EB
:10406000809113028823A1F0C091E900CF70909154
:10407000EC00892F817090FD80E8C82B1092E90038
:104080008091E80083FD0E94E41ECF70C093E90098
:10409000CF9108950E9451206894B1110C94E020B2
:1040A00008950E94C52088F09F5798F0B92F99274E
:1040B000B751B0F0E1F0660F771F881F991F1AF013
:1040C000BA95C9F714C0B13091F00E94DF20B1E079
:1040D00008950C94DF20672F782F8827B85F39F078
:1040E000B93FCCF3869577956795B395D9F73EF4AC
:1040F00090958095709561957F4F8F4F9F4F089554
:10410000E89409C097FB3EF4909580957095619571
:104110007F4F8F4F9F4F9923A9F0F92F96E9BB2727
:104120009395F695879577956795B795F111F8CFA3
:10413000FAF4BB0F11F460FF1BC06F5F7F4F8F4F0E
:104140009F4F16C0882311F096E911C0772321F004
:104150009EE8872F762F05C0662371F096E8862F9C
:1041600070E060E02AF09A95660F771F881FDAF7F3
:10417000880F9695879597F9089557FD9058440FA5
:10418000551F59F05F3F71F04795880F97FB991FB6
:1041900061F09F3F79F08795089512161306140673
:1041A000551FF2CF4695F1DF08C016161706180600
:1041B000991FF1CF86957105610508940895E894DB
:1041C000BB2766277727CB0197F908950E94F9202E
:1041D0000C946A210E945C2138F00E94632120F037
:1041E000952311F00C9453210C94592111240C9413
:1041F000E0200E94BD2070F3959FC1F3950F50E021
:10420000551F629FF001729FBB27F00DB11D639F88
:10421000AA27F00DB11DAA1F649F6627B00DA11D2E
:10422000661F829F2227B00DA11D621F739FB00DD4
:10423000A11D621F839FA00D611D221F749F332744
:10424000A00D611D231F849F600D211D822F762FDD
:104250006A2F11249F5750409AF0F1F088234AF0BA
:10426000EE0FFF1FBB1F661F771F881F9150504026
:10427000A9F79E3F510580F00C9453210C94E02047
:104280005F3FE4F3983ED4F3869577956795B795AD
:10429000F795E7959F5FC1F7FE2B880F911D9695C7
:1042A000879597F9089597F99F6780E870E060E037
:1042B00008959FEF80EC089500240A9416161706BF
:1042C00018060906089500240A9412161306140607
:1042D00005060895092E0394000C11F4882352F06A
:1042E000BB0F40F4BF2B11F460FF04C06F5F7F4F22
:1042F0008F4F9F4F089597FB072E16F4009407D019
:1043000077FD09D00E94952107FC05D03EF49095D9
:1043100081959F4F0895709561957F4F0895EE0F99
:10432000FF1F0590F491E02D0994AA1BBB1B51E1DE
:1043300007C0AA1FBB1FA617B70710F0A61BB70B15
:10434000881F991F5A95A9F780959095BC01CD01BA
:104350000895F999FECF92BD81BDF89A992780B54D
:104360000895A8E1B0E042E050E00C94D121262F5E
:10437000F999FECF92BD81BDF89A019700B402165B
:1043800039F01FBA20BD0FB6F894FA9AF99A0FBE09
:1043900008950196272F0E94B8210C94B721DC01C3
:1043A000CB01FC01F999FECF06C0F2BDE1BDF89A40
:1043B000319600B40D9241505040B8F70895F894EA
:1043C000FFCF0E041A041E04220426042A042E041D
:1043D000320436043A043E04420446044A044E04BD
:1043E000520456045A04D60AD60A2E0B2E0B720B10
:1043F0008E0B060B060B990B060B610C610CCC0C9B
:10440000060B060BD50C0D1F321F1620321F16206F
:0A441000621F831F1620D81FE41F4F
:10441A00B9012808140A321E6A19FA19D719A019FB
:10442A006D19013334353637606162636430313275
:10443A00404D3639D7058A0554051B05AE04C70415
:04444A00E004F9048D
:00000001FF
